:020000040800F2
:10000000005000209D4B00089D0500089F0500083A
:10001000A1050008A3050008A505000800000000D0
:10002000000000000000000000000000713E000819
:10003000A705000800000000113F0008553F000818
:10004000E54B0008E54B0008E54B0008E54B0008D0
:10005000E54B0008E54B0008A9050008E54B000842
:10006000E54B0008E54B0008E54B0008E54B0008B0
:10007000E54B0008E54B0008E54B0008E54B0008A0
:10008000E54B0008E54B0008E54B0008E54B000890
:10009000E54B0008E54B0008E54B0008E54B000880
:1000A000E54B0008B5050008E54B0008E54B0008E6
:1000B000E54B0008E54B0008E54B0008E54B000860
:1000C000E54B0008E54B0008E54B0008C5050008B6
:1000D000E54B0008D5050008E54B0008E54B000896
:1000E000E54B0008E54B0008E54B00080000000068
:1000F0000000000000000000000000000000000000
:0C01000000000000000000005FF808F1A3
:1001100010B5054C237833B9044B13B10448AFF341
:1001200000800123237010BD780000200000000033
:100130004861000808B5034B1BB103490348AFF3FE
:10014000008008BD000000007C000020486100081D
:10015000034613F8012B002AFBD1181A0138704707
:100160004FF0FF0C1CEAD0521EBF1CEAD15392EA9A
:100170000C0F93EA0C0F6FD01A4480EA010C400276
:1001800018BF5FEA41211ED04FF0006343EA5010D0
:1001900043EA5111A0FB01310CF00040B1F5000F12
:1001A0003EBF490041EAD3715B0040EA010062F1C1
:1001B0007F02FD2A1DD8B3F1004F40EBC25008BFAB
:1001C00020F00100704790F0000F0CF0004C08BFC9
:1001D00049024CEA502040EA51207F3AC2BFD2F196
:1001E000FF0340EAC250704740F400004FF00003A4
:1001F000013A5DDC12F1190FDCBF00F000407047DE
:10020000C2F10002410021FA02F1C2F1200200FA1B
:1002100002FC5FEA310040F1000053EA4C0308BFE2
:1002200020EADC70704792F0000F00F0004C02BF33
:10023000400010F4000F013AF9D040EA0C0093F0AE
:10024000000F01F0004C02BF490011F4000F013B08
:10025000F9D041EA0C018FE70CEAD15392EA0C0F76
:1002600018BF93EA0C0F0AD030F0004C18BF31F0E1
:10027000004CD8D180EA010000F00040704790F0B7
:10028000000F17BF90F0004F084691F0000F91F05B
:10029000004F14D092EA0C0F01D142020FD193EA21
:1002A0000C0F03D14B0218BF084608D180EA0100A9
:1002B00000F0004040F0FE4040F40000704740F085
:1002C000FE4040F44000704780F0004002E000BF74
:1002D00081F0004142001FBF5FEA410392EA030F31
:1002E0007FEA226C7FEA236C6AD04FEA1262D2EB7B
:1002F0001363C1BFD218414048404140B8BF5B4280
:10030000192B88BF704710F0004F40F4000020F018
:100310007F4018BF404211F0004F41F4000121F02E
:100320007F4118BF494292EA030F3FD0A2F1010278
:1003300041FA03FC10EB0C00C3F1200301FA03F1B6
:1003400000F0004302D5494260EB4000B0F5000FD9
:1003500013D3B0F1807F06D340084FEA310102F198
:100360000102FE2A51D2B1F1004F40EBC25008BF4A
:1003700020F0010040EA03007047490040EB000014
:10038000013A28BFB0F5000FEDD2B0FA80FCACF115
:10039000080CB2EB0C0200FA0CF0AABF00EBC25042
:1003A00052421843BCBFD0401843704792F0000F30
:1003B00081F4000106BF80F400000132013BB5E783
:1003C0004FEA41037FEA226C18BF7FEA236C21D0F9
:1003D00092EA030F04D092F0000F08BF084670475E
:1003E00090EA010F1CBF0020704712F07F4F04D12C
:1003F000400028BF40F00040704712F100723CBF3F
:1004000000F50000704700F0004343F0FE4040F468
:10041000000070477FEA226216BF08467FEA236326
:100420000146420206BF5FEA412390EA010F40F411
:10043000800070474FF0000304E000BF10F000435D
:1004400048BF40425FEA000C08BF704743F0964344
:1004500001464FF000001CE050EA010208BF70475F
:100460004FF000030AE000BF50EA010208BF7047E6
:1004700011F0004302D5404261EB41015FEA010CFB
:1004800002BF84460146002043F0B64308BFA3F1F3
:100490008053A3F50003BCFA8CF2083AA3EBC253D5
:1004A00010DB01FA02FC634400FA02FCC2F12002F4
:1004B000BCF1004F20FA02F243EB020008BF20F02B
:1004C0000100704702F1200201FA02FCC2F1200291
:1004D00050EA4C0021FA02F243EB020008BF20EA86
:1004E000DC70704710F8012B11F8013B012A28BF7E
:1004F0009A42F7D0D01A704708B50268034B9A4267
:1005000000D008BD00F000FAFBE700BF002C01405E
:1005100072B6FEE700B591B02822002106A804F0CB
:10052000A7FB0023019302930393049305930122F5
:1005300006924FF4803307930A9202220D920E9393
:100540004FF4E0130F9306A800F006FA80B90F23CA
:10055000019302210291002303934FF480620492DD
:10056000059301A800F038FC20B911B05DF804FB38
:10057000FFF7CEFFFFF7CCFF08B500F0B3F9FFF7A8
:10058000C9FF00F011FF00F05DFF01F003FB03F075
:100590003FFA01F0D5FA03F05DFAFEE7FEE7FEE769
:1005A000FEE7FEE7FEE7704708B5012000F026FEF3
:1005B00008BD000008B5024800F06EF808BD00BF95
:1005C0004001002008B5024801F062FE08BD00BFEE
:1005D000E800002008B5024801F078F908BD00BF26
:1005E0009800002000B583B00D4B9A6942F00102DB
:1005F0009A619A6902F001020092009ADA6942F067
:100600008052DA61DB6903F080530193019B002281
:100610000F216FF0010000F07FFE03B05DF804FBD6
:10062000001002407047000090F83D30DBB2012B13
:1006300027D1022380F83D300268D36843F00103DC
:10064000D3600368114A934210D0B3F1804F0DD0AC
:10065000A2F59432934209D002F58062934205D00C
:100660001A6842F001021A60002070479A6802F08E
:100670000702062A07D01A6842F001021A60002019
:100680007047012070470020704700BF002C0140D8
:10069000704770477047704710B5044603681A6981
:1006A00012F0020F11D0DA6812F0020F0DD06FF0C5
:1006B00002021A610123037703689B6913F0030F99
:1006C00070D0FFF7E6FF0023237723681A6912F042
:1006D000040F12D0DA6812F0040F0ED06FF004028B
:1006E0001A610223237723689B6913F4407F5FD04C
:1006F0002046FFF7CEFF0023237723681A6912F004
:10070000080F12D0DA6812F0080F0ED06FF008024E
:100710001A61042323772368DB6913F0030F4ED09B
:100720002046FFF7B6FF0023237723681A6912F0EB
:10073000100F12D0DA6812F0100F0ED06FF0100206
:100740001A61082323772368DB6913F4407F3DD0C7
:100750002046FFF79EFF0023237723681A6912F0D3
:10076000010F03D0DA6812F0010F36D123681A693D
:1007700012F0800F03D0DA6812F0800F34D12368B2
:100780001A6912F0400F03D0DA6812F0400F32D12C
:1007900023681A6912F0200F03D0DA6812F0200FD4
:1007A00030D110BDFFF774FF2046FFF773FF8AE7D3
:1007B0002046FFF76DFF2046FFF76CFF9BE72046C2
:1007C000FFF766FF2046FFF765FFACE72046FFF71F
:1007D0005FFF2046FFF75EFFBDE76FF001021A6181
:1007E0002046FFF789FEC1E76FF080021A612046BC
:1007F00000F077F8C3E76FF040021A612046FFF778
:100800004AFFC5E76FF020021A61204600F068F841
:10081000C7E7000003681B4A90420AD0B0F1804F3E
:1008200007D0A2F59432904203D002F58062904244
:1008300003D123F070034A681343124A90420AD04E
:10084000B0F1804F07D0A2F59432904203D002F568
:100850008062904203D123F44073CA68134323F0AB
:1008600080034A69134303608B68C3620B68836229
:10087000044B984202D00123436170470B69036324
:10088000F9E700BF002C014040B310B5044690F8D2
:100890003D30F3B1022384F83D30214651F8040B7A
:1008A000FFF7B8FF012384F8463084F83E3084F81F
:1008B0003F3084F8403084F8413084F8423084F886
:1008C000433084F8443084F8453084F83D300020CB
:1008D00010BD80F83C30FFF7A5FEDBE70120704734
:1008E0007047704708B5074A136843F01003136058
:1008F000032000F0FFFC0F2001F0B0F9FFF772FEBB
:10090000002008BD00200240034A1168034B1B78F9
:100910000B441360704700BF9400002004000020C7
:10092000014B1868704700BF9400002082B0084B4C
:100930001B68084AA2FB03235B0A00FB03F3019335
:1009400000BF019B5A1E0192002BF9D102B07047E3
:100950000C000020D34D6210002800F0F18170B52A
:1009600082B00446036813F0010F2CD0994B5B68EA
:1009700003F00C03042B1DD0964B5B6803F00C03B3
:10098000082B12D06368B3F5803F41D0002B55D1BE
:1009900003F1804303F504331A6822F480321A60AD
:1009A0001A6822F480221A6037E08A4B5B6813F4DD
:1009B000803FE7D0874B1B6813F4003F03D0636888
:1009C000002B00F0BF81236813F0020F75D0814B1C
:1009D0005B6813F00C0F5FD07E4B5B6803F00C0379
:1009E000082B54D02369002B00F08A807A4B012217
:1009F0001A60FFF795FF0546764B1B6813F0020F50
:100A000075D1FFF78DFF401B0228F5D903209EE129
:100A1000704A136843F480331360636843B3FFF78D
:100A20007FFF05466B4B1B6813F4003FCBD1FFF7EC
:100A300077FF401B6428F5D9032088E1B3F5A02F88
:100A400009D0644B1A6822F480321A601A6822F4C2
:100A500080221A60E1E703F18043A3F53C331A6872
:100A600042F480221A601A6842F480321A60D4E795
:100A7000FFF756FF0546574B1B6813F4003FA2D003
:100A8000FFF74EFF401B6428F5D903205FE1514B6F
:100A90005B6813F4803FA5D14E4B1B6813F0020F27
:100AA00003D02369012B40F04F814A4A136823F099
:100AB000F803616943EAC1031360236813F0080F68
:100AC00033D0A369002B5CD0434B0122C3F88024B0
:100AD000FFF726FF05463F4B5B6A13F0020F21D15B
:100AE000FFF71EFF401B0228F5D903202FE1394AEA
:100AF000136823F0F803616943EAC1031360DCE77C
:100B0000354B00221A60FFF70BFF0546314B1B687F
:100B100013F0020FD1D0FFF703FF401B0228F5D9D5
:100B2000032014E10120FFF701FF236813F0040FF5
:100B300000F09680274BDB6913F0805F34D1254BA2
:100B4000DA6942F08052DA61DB6903F08053019385
:100B5000019B0125214B1B6813F4807F26D0E3689D
:100B6000012B3DD0002B53D103F1804303F5043317
:100B70001A6A22F001021A621A6A22F004021A6248
:100B800033E0154B0022C3F88024FFF7C9FE054669
:100B9000104B5B6A13F0020FC7D0FFF7C1FE401B7A
:100BA0000228F5D90320D2E00025D3E70B4A1368C9
:100BB00043F480731360FFF7B3FE0646074B1B68D0
:100BC00013F4807FCBD1FFF7ABFE801B6428F5D9EF
:100BD0000320BCE0001002400000424200700040D0
:100BE0005F4A136A43F001031362E36833B3FFF70C
:100BF00097FE06465A4B1B6A13F0020F2FD1FFF7E0
:100C00008FFE801B41F288339842F3D903209EE087
:100C1000052B09D0524B1A6A22F001021A621A6A95
:100C200022F004021A62E0E74D4B1A6A42F0040215
:100C30001A621A6A42F001021A62D6E7FFF770FEE2
:100C40000646474B1B6A13F0020F08D0FFF768FEF9
:100C5000801B41F288339842F3D9032077E0E5B94D
:100C6000E369002B72D03E4A526802F00C02082A57
:100C700056D0022B17D03B4B00221A66FFF750FECE
:100C80000446374B1B6813F0007F47D0FFF748FE40
:100C9000001B0228F5D9032059E0314AD36923F01B
:100CA0008053D361DCE72F4B00221A66FFF738FE32
:100CB00005462B4B1B6813F0007F06D0FFF730FE74
:100CC000401B0228F5D9032041E0236AB3F5803F99
:100CD0001AD023494B6823F47413226A606A0243D2
:100CE00013434B601F4B01221A66FFF719FE04469F
:100CF0001B4B1B6813F0007F0ED1FFF711FE001B8A
:100D00000228F5D9032022E0154A536823F4003362
:100D1000A1680B435360DCE7002018E0002016E0D8
:100D2000012B16D00E4B5B6803F48031226A91428E
:100D300011D103F47013626A93420ED1002006E0D1
:100D400001207047012002E0012000E0002002B0F5
:100D500070BD0120FBE70120F9E70120F7E700BFA4
:100D6000001002400000424286B0174B0FCB0DF13D
:100D7000180C0CE90F0040F20123ADF80430134BBE
:100D80005B6803F00C02082A02D0114806B07047D5
:100D9000C3F3834218326A4412F8100C13F4803FF4
:100DA0000DD00A4B5B68C3F3404318336B4413F810
:100DB000143C074A02FB00F0B0FBF3F0E6E7054BFA
:100DC00003FB00F0E2E700BFA06100080010024052
:100DD00000127A0000093D00002800F0A08070B5E4
:100DE0000D460446524B1B6803F007038B420BD29F
:100DF0004F4A136823F007030B431360136803F093
:100E000007038B4240F08D80236813F0020F17D048
:100E100013F0040F04D0474A536843F4E06353606F
:100E2000236813F0080F04D0424A536843F4605318
:100E30005360404A536823F0F003A1680B435360AA
:100E4000236813F0010F31D06368012B20D0022BEF
:100E500025D0384A126812F0020F64D035494A682A
:100E600022F0030213434B60FFF75AFD0646314B55
:100E70005B6803F00C036268B3EB820F16D0FFF7D8
:100E80004FFD801B41F288339842F0D9032045E0A2
:100E9000284A126812F4003FE0D101203EE0254AC2
:100EA000126812F0007FD9D1012037E0204B1B6877
:100EB00003F00703AB420AD91D4A136823F0070366
:100EC0002B431360136803F00703AB422DD1236853
:100ED00013F0040F06D0174A536823F4E063E16867
:100EE0000B435360236813F0080F07D0114A53686F
:100EF00023F46053216943EAC1035360FFF734FFD1
:100F00000C4B5B68C3F303130B4AD35CD8400B4B09
:100F100018600B4B186800F0A1FE002070BD012086
:100F200070470120FAE70120F8E70120F6E700BF4B
:100F30000020024000100240B46100080C000020B4
:100F400008000020014B1868704700BF0C0000200B
:100F500008B5FFF7F7FF044B5B68C3F30223034AAE
:100F6000D35CD84008BD00BF00100240C461000837
:100F700008B5FFF7E7FF044B5B68C3F3C223034ADE
:100F8000D35CD84008BD00BF00100240C461000817
:100F90000F2303600B4B5A6802F0030242605A6849
:100FA00002F0F00282605A6802F4E062C2605B689C
:100FB000DB0803F4E0630361034B1B6803F00703E2
:100FC0000B607047001002400020024070B582B0F4
:100FD0000024A446A6E0804DAA4210D007D97F4D38
:100FE000AA420CD005F58035AA4208D013E0A5F539
:100FF0008015AA4203D005F57025AA4207D18A6858
:10100000002A58D0012A51D04361082403E0A5F5F5
:101010008015AA42F3D0BEF1FF0F4ED80646BEF1AE
:10102000FF0F4CD84FEA8C0233680F25954023EA16
:10103000050304FA02F2134333604B6813F0805F38
:101040006ED0674B9A6942F001029A619B6903F086
:1010500001030193019B4FEA9C02951C614B53F8DD
:1010600025600CF003039D000F23AB4026EA030626
:101070005D4B984229D003F58063984200F08E8042
:1010800003F58063984200F08B8003F580639842FB
:1010900019D004231AE0CC68BDE7CC680434BAE761
:1010A000CC680834B7E7CC680C34B4E70361082493
:1010B000B1E70024AFE70424ADE7061DAFE7ACF1CC
:1010C00008029200B0E7032300E00023AB40334363
:1010D0000232444D45F822304B6813F4803F61D012
:1010E000424A136843EA0E0313604B6813F4003F4F
:1010F0005ED03E4A536843EA0E0353604B6813F4D4
:10110000801F5BD0394A936843EA0E0393604B68B3
:1011100013F4001F58D0354AD36843EA0E03D36056
:101120000CF1010C0A6832FA0CF353D0012303FAD4
:101130000CF302EA030E33EA0202F1D14A68122AE2
:101140003FF649AF122A3FF666AF01A555F822F0E7
:10115000FF0F000897100008A1100008B310000846
:1011600017100008171000081710000817100008C3
:1011700017100008171000081710000817100008B3
:1011800017100008171000081710000817100008A3
:10119000171000089B100008A7100008012395E70E
:1011A000022393E7114A136823EA0E0313609CE7B6
:1011B0000E4A536823EA0E0353609FE70B4A936875
:1011C00023EA0E039360A2E7084AD36823EA0E03DA
:1011D000D360A5E702B070BD0000221000003110FE
:1011E00000100240000001400008014000040140DE
:1011F0000AB10161704709040161704708B5054BE8
:101200005B69034200D108BD024B586103F0F6FA56
:10121000F9E700BF0004014090F82130022B06D00E
:1012200004238363002380F8203001207047026884
:10123000136823F00E0313600268136823F00103A0
:101240001360036CC16B012202FA03F34B6080F858
:101250002120002380F820301846704708B590F808
:101260002130022B03D004238363012008BD0268D0
:10127000136823F00E0313600268136823F0010360
:1012800013600368194A934214D0143293421FD05A
:10129000143293421ED0143293421ED01432934221
:1012A0001ED01432934202D04FF0807203E04FF40C
:1012B000801200E001220E4B5A60012380F8213099
:1012C000002380F82030436B6BB198470020CDE7B6
:1012D0001022F0E74FF48072EDE74FF48052EAE716
:1012E0004FF48032E7E70020C0E700BF080002406B
:1012F00000000240074AD36823F4E0631B041B0C80
:10130000000200F4E060034343F0BF6343F40033A2
:10131000D360704700ED00E000B5194BDB68C3F304
:101320000223C3F1070CBCF1040F28BF4FF0040CDB
:1013300003F1040EBEF1060F18D9033B4FF0FF3E38
:101340000EFA0CFC21EA0C0199400EFA03F322EA92
:101350000303194300280BDB0901C9B200F1604007
:1013600000F5614080F800135DF804FB0023E5E719
:1013700000F00F000901C9B2024B1954F4E700BF95
:1013800000ED00E014ED00E0002807DB00F01F0294
:10139000400901239340024A42F82030704700BFC1
:1013A00000E100E07047000070B588B000240494AC
:1013B0000594069407941F4B9A6942F020029A61A3
:1013C0009A6902F020020192019A9A6942F004029D
:1013D0009A619A6902F004020292029A9A6942F0B2
:1013E00008029A619B6903F008030393039B124E62
:1013F000224610213046FFF7FBFE102304930125FF
:10140000059506940223079304A93046FFF7DEFDF5
:1014100004950A4B0593069404A90948FFF7D6FDE5
:10142000224605210620FFF777FF0620FFF7ACFFD5
:1014300008B070BD0010024000080140000011100B
:10144000000C014008B50A480A4B03604FF4E13331
:10145000436000238360C36003610C2242618361A7
:10146000C36100F017F900B908BDFFF751F8FBE7B9
:10147000980000200038014030B587B00023029367
:1014800003930493059302681B4B9A4201D007B063
:1014900030BD03F558439A6942F480429A619A69D3
:1014A00002F480420092009A9A6942F004029A6122
:1014B0009B6903F004030193019B4FF400730293B3
:1014C00002230393032305930C4D02A92846FFF73B
:1014D0007DFD4FF48063029300240394049402A9D9
:1014E0002846FFF773FD224605212520FFF714FF4C
:1014F0002520FFF749FFCAE70038014000080140F6
:101500000268D36823F49073D3600268536923F0B0
:1015100001035361036B012B05D0202380F83E307B
:101520000023036370470268D36823F01003D3607D
:10153000F3E790F83D30DBB2212B01D00220704759
:101540008368B3F5805F17D0036A5A1C02621A7869
:1015500003685A60C38C9BB2013B9BB2C3844BB9F6
:101560000268D36823F08003D3600268D36843F035
:101570004003D360002070470369002BE4D1036A65
:101580001B880268C3F308035360036A02330362D3
:10159000E0E7000010B504460268136923F44053E5
:1015A000C1680B43136183680269134342691A439C
:1015B0000168CB6823F4B05323F00C031343CB60D2
:1015C0000268536923F4407381690B4353610268D5
:1015D000134B9A4220D0FFF7BBFC024602EB82027B
:1015E00002EB820263689B00B2FBF3F20D48A0FBA2
:1015F00002314909642303FB11231B013233A0FB91
:1016000003235B0903F0F00202EB011203F00F0366
:10161000216813448B6010BDFFF7AAFC0246DDE78A
:10162000003801401F85EB512DE9F84305460F4670
:1016300016469946DDF820802C68246837EA0403B2
:101640000CBF4FF0010C4FF0000CB4451FD1B8F1A6
:10165000FF3FF1D0B8F1000F05D0FFF761F9A0EB23
:1016600009004045E8D92A68D36823F4D073D360D1
:101670002A68536923F001035361202385F83D3024
:1016800085F83E30002385F83C30032000E0002040
:10169000BDE8F88358B310B5044690F83D300BB35D
:1016A000242384F83D302268D36823F40053D360A8
:1016B0002046FFF76FFF2268136923F490431361FC
:1016C0002268536923F02A0353612268D36843F4E4
:1016D0000053D36000202064202384F83D3084F838
:1016E0003E3010BD80F83C30FFF7C6FED8E7012041
:1016F00070472DE9F04182B01E4690F83D30DBB2D4
:10170000202B54D104460D469046002953D0002A80
:1017100053D090F83C30012B51D0012380F83C305D
:1017200000230364212380F83D30FFF7F9F80746D2
:10173000A4F82480A4F82680A368B3F5805F05D0C0
:101740004FF00008002384F83C3012E0236913B105
:101750004FF00008F6E7A8460025F3E738F8023B0B
:101760002268C3F308035360E28C92B2013A92B24A
:10177000E284E38C9BB273B100963B460022802149
:101780002046FFF751FFE0B9002DE7D015F8012BF7
:1017900023685A60E8E700963B4600224021204635
:1017A000FFF742FF78B9202384F83D3000E00220A3
:1017B00002B0BDE8F0810120FAE70120F8E702203D
:1017C000F6E70320F4E70320F2E7704708B5016865
:1017D000CA6822F04002CA60202280F83D20FFF74C
:1017E000F4FF002008BD08B5406A0023C385C38408
:1017F00003F0D6F808BD704790F83E30DBB2222BDC
:1018000060D18368B3F5805F46D0826AB3F5805FAC
:1018100004D0002B4DD10369002B4AD103685B68CB
:101820001370836A01338362C38D9BB2013B9BB209
:10183000C385002B48D100B583B00268D36823F07C
:101840002003D3600268D36823F48073D3600268F6
:10185000536923F001035361202380F83E30036B6A
:10186000012B2CD1002303630268D36823F01003FB
:10187000D36003681A6812F0100F06D0002201929C
:101880001A6801925B680193019B818DFFF7B3FF9A
:10189000002003B05DF804FB0269002AB5D1826A1A
:1018A00003685B68C3F308031380836A02338362AF
:1018B000BAE703685B6803F07F031370B1E703F0D6
:1018C0005DF8E5E7022070470020704730B583B02F
:1018D000044602681368D068516913F00F0505D1FA
:1018E00013F0200F02D010F0200F19D12DB111F0FC
:1018F000010119D110F4907F16D1216B012975D007
:1019000013F0800F03D010F0800F40F0D78013F059
:10191000400F03D010F0400F40F0D48003B030BD32
:101920002046FFF769FFF9E713F0010F06D010F426
:10193000807F03D0226C42F00102226413F0040F76
:1019400004D019B1226C42F00202226413F0020F9B
:1019500004D019B1226C42F00402226413F0080F83
:1019600007D010F0200F00D119B1226C42F008020C
:101970002264226C002AD1D013F0200F02D010F084
:10198000200F21D123685B6903F04003226C12F021
:10199000080F00D123B32046FFF7B2FD23685A6930
:1019A00012F0400F18D05A6922F040025A61A36B1E
:1019B00073B1464A5A63A06BFFF750FC0028ADD0C4
:1019C000A06B436B9847A9E72046FFF715FFD9E7BF
:1019D000204602F0E5FFA1E7204602F0E1FF9DE787
:1019E000204602F0DDFF0023236497E713F0100F79
:1019F00086D010F0100F83D0002301931368019359
:101A000053680193019B536913F0400F32D0A16BCF
:101A10000B685B689BB2002B80D0A08D98427FF64C
:101A20007DAFE3858B69202B08D1A18DE38D9BB21F
:101A3000C91A89B22046FFF7DEFE6FE7D36823F4A8
:101A40008073D3602268536923F0010353612268D5
:101A5000536923F040035361202384F83E30002370
:101A600023632268D36823F01003D360A06BFFF7D1
:101A7000D3FBDAE7A18DE38D9BB2C91A89B2E38D5E
:101A80009BB2002B3FF44AAF00293FF447AFD36825
:101A900023F49073D3602268536923F001035361E8
:101AA000202384F83E30002323632268D36823F088
:101AB0001003D3602046FFF79EFE2FE72046FFF776
:101AC00038FD2BE72046FFF781FE27E7E7170008E0
:101AD000034681628285C28500201864222283F831
:101AE0003E2083F83C001968CA6842F48072CA60DC
:101AF00019684A6942F001024A611A68D36843F0E2
:101B00002003D360704708B590F83E30DBB2202B3D
:101B10000DD171B17AB190F83C30012B0DD0012379
:101B200080F83C3000230363FFF7D2FF00E002207F
:101B300008BD0120FCE70120FAE70220F8E70000D9
:101B400008B50B4A00210B4801F0AAFF0A4B1860A8
:101B50000A4A00210A4801F0A3FF0A4B18600A4A0A
:101B600000210A4801F09CFF094B186008BD00BF26
:101B7000F461000801480008DC0000201862000839
:101B800051490008E00000203C620008B949000803
:101B9000E400002008B50E480E4B03604FF482733A
:101BA000436000238360C360036143614FF40072AC
:101BB00082612822C2610362436283620A23C36294
:101BC00000F012F900B908BDFEF7A2FCFBE700BF68
:101BD000E80000200030014030B587B000230293B8
:101BE00003930493059302681A4B9A4201D007B0FD
:101BF00030BD03F560439A6942F480529A619A6954
:101C000002F480520092009A9A6942F004029A61AA
:101C10009B6903F004030193019BA0230293022319
:101C20000393032305930C4D02A92846FFF7CEF931
:101C30004023029300240394049402A92846FFF74A
:101C4000C5F9224605212320FFF766FB2320FFF775
:101C50009BFBCCE7003001400008014030B589B063
:101C600004461E4B9A6942F400629A619B6903F430
:101C700000630193019B02A903A8FFF789F9FFF70D
:101C800077F903461648A0FB03239B0C013B15483C
:101C9000154A026040F2E732C260436000230361EC
:101CA00083608361FEF7F0FD054610B1284609B058
:101CB00030BD0C48FEF7B8FC05460028F6D11920C7
:101CC000FFF762FB0F2C01D90125EFE70022214627
:101CD0001920FFF721FB054B1C60E7E700100240CD
:101CE00083DE1B4340010020002C0140080000203F
:101CF0002DE9F04782B00546884617461E46FEF796
:101D00000FFE0A9B1B1A03EB0609FEF709FE82462B
:101D10002B4B1B68C3F3CB3309FB03F301932B68F5
:101D20009C6838EA04030CBF4FF0010C4FF0000C24
:101D3000BC4540D0B6F1FF3FF1D0FEF7F1FDA0EB7E
:101D40000A0048450AD2B9F1000F07D0019A02B142
:101D50004A46019B013B01939146E0E72A6853689C
:101D600023F0E00353606B68B3F5827F0BD0AB6A5E
:101D7000B3F5005F14D0012385F85130002385F8B6
:101D80005030032018E0AB68B3F5004F02D0B3F534
:101D9000806FECD12A68136823F040031360E6E7F4
:101DA0002A68136823F4005313602A68136843F405
:101DB00000531360DFE7002002B0BDE8F08700BFEA
:101DC0000C00002010B582B004460B4600920022A1
:101DD0008021FFF78DFF08B902B010BD636D43F09D
:101DE000200363650320F7E7002856D010B50446AA
:101DF000436A33B94368B3F5827F05D00023C361DA
:101E000002E00023036143610023A36294F8513090
:101E1000002B3CD0022384F851302268136823F051
:101E200040031360636803F48273A26802F40442FF
:101E30001343E26802F400621343226902F00202D3
:101E40001343626902F001021343A26902F40072B3
:101E50001343E26902F038021343226A02F080025F
:101E60001343A26A02F40052216813430B60638B90
:101E7000226803F0040353602268D36923F40063EB
:101E8000D36100206065012384F8513010BD84F8CF
:101E900050302046FFF7A0FEBCE7012070472DE937
:101EA000F04383B01D4690F85030012B00F0D180F4
:101EB000044688469146012380F85030FEF730FDF5
:101EC000074694F85160F6B2012E40F0AF80B8F1A9
:101ED000000F00F0AC80B9F1000F00F0A8800323E0
:101EE00084F8513000236365C4F83080A4F834903E
:101EF000A4F83690A363A387E38763642364A3688D
:101F0000B3F5004F1ED023681A6812F0400F03D1BA
:101F10001A6842F040021A60E368B3F5006F1CD003
:101F2000636813B1B9F1010F52D1226B23681278A3
:101F30001A73236B01332363E38E9BB2013B9BB285
:101F4000E38645E02268136823F0400313602268AB
:101F5000136843F480431360D5E7636813B1B9F1A4
:101F6000010F16D1226B23681288DA60236B0233CB
:101F70002363E38E9BB2013B9BB2E38609E0FEF74D
:101F8000CFFCC01BA84202D3B5F1FF3F59D1002DB1
:101F900059D0E38E9BB2002B33D023689A6812F09D
:101FA000020FECD0226B1288DA60236B02332363BA
:101FB000E38E9BB2013B9BB2E386EAE7FEF7B0FCFF
:101FC000C01BA84202D3B5F1FF3F3ED1002D3ED049
:101FD000E38E9BB2ABB123689A6812F0020FEDD08A
:101FE000226B12781A73236B01332363B4F836C063
:101FF0001FFA8CFC0CF1FF3C1FFA8CFCA4F836C0D5
:10200000E6E73A4629462046FFF7DCFE08B12023E2
:102010006365A36833B901932368DA6801929B680A
:102020000193019B636D13B9002600E00226012392
:1020300084F85130002384F85030304603B0BDE8B6
:10204000F0830326F3E70326F1E70326EFE70326F1
:10205000EDE70226F1E72DE9F04383B01F460A9D24
:1020600090F85030012B00F01081044688469146CC
:10207000012380F85030FEF753FC064694F85130A7
:10208000DBB26268012B0AD0B2F5827F40F0E380B8
:10209000A268002A40F0E980042B40F0E880B8F103
:1020A000000F00F0E680B9F1000F00F0E480002F8F
:1020B00000F0E38094F85130DBB2042B02D005230A
:1020C00084F8513000236365C4F83890E787A78708
:1020D000C4F83080E786A7862364636423681A689F
:1020E00012F0400F03D11A6842F040021A60E36810
:1020F000B3F5006F11D063680BB1012F0BD1226BC8
:10210000236812781A73236B01332363E38E9BB227
:10211000013B9BB2E38601276BE063680BB1012FA3
:102120000BD1226B23681288DA60236B023323639E
:10213000E38E9BB2013B9BB2E38601271CE0236840
:102140009A6812F0010F0ED0E28F92B25AB1DA689B
:10215000A36B1A80A36B0233A363E38F9BB2013B93
:102160009BB2E3870127FEF7DBFB801BA84203D36A
:10217000B5F1FF3F40F08380E38E9BB21BB9E38F44
:102180009BB2002B53D023689A6812F0020FD6D06E
:10219000E28E92B2002AD2D0002FD0D0226B1288C9
:1021A000DA60236B02332363E38E9BB2013B9BB265
:1021B000E3860027C3E723689A6812F0010F0ED068
:1021C000E28F92B25AB1DA68A36B1A70A36B013333
:1021D000A363E38F9BB2013B9BB2E3870127FEF72A
:1021E0009FFB831BAB4202D3B5F1FF3F49D1002DCA
:1021F00049D0E38E9BB213B9E38F9BB2BBB1236886
:102200009A6812F0020FD6D0E28E92B2002AD2D093
:10221000002FD0D0226B12781A73236B0133236303
:10222000E38E9BB2013B9BB2E3860027C3E73246B5
:1022300029462046FFF7C6FD48B9A36863B9019354
:102240002368DA6801929B680193019B04E02023D4
:102250006365012000E00220012384F8513000234F
:1022600084F8503003B0BDE8F0830220F4E7022088
:10227000F2E70120F0E70120EEE70120ECE7032080
:10228000EAE70320E8E70320E6E70220EAE77047F1
:1022900030B585B00446026851689368C3F3801076
:1022A00013F0400F05D113F0010F02D011F0400FD1
:1022B0005AD113F0020F02D011F0800F58D1C3F39E
:1022C000401513F0200F01D1002854D011F0200F39
:1022D00051D078B194F85130DBB2032B4DD0636DFF
:1022E00043F00403636500230193D368019393686B
:1022F0000193019B65B1636D43F0010363650023A6
:10230000039393680393136823F040031360039BC4
:10231000636D002B2FD02268536823F0E0035360D5
:10232000012384F8513011F0030F2ED02268536836
:1023300023F003035360E36C4BB1164A5A63E06C1D
:10234000FEF78CFF18B1636D43F040036365A36C27
:102350008BB1104A5A63A06CFEF780FF58B1636DD1
:1023600043F04003636506E0236C2046984702E093
:10237000636C2046984705B030BD00230293D368B4
:10238000029393680293029BF5E72046FFF77FFFD5
:10239000F1E700BF9923000808B5406A0023C3870E
:1023A000C386FFF774FF08BD00F1080343604FF0D8
:1023B000FF328260C3600361002303607047002323
:1023C0000361704743684B609A688A605160996006
:1023D0000861036801330360704730B40D68B5F1DC
:1023E000FF3F11D000F108031C465B681A68AA423F
:1023F000FAD963684B6099608C606160086103681A
:102400000133036030BC70470469F2E70369416837
:1024100082688A60416851605A68824206D0002210
:1024200002611A68013A1A601868704782685A6037
:10243000F5E710B5044601F02DFDA26BE36B9A425F
:1024400004D0002401F048FD204610BD0124F9E726
:1024500010B5044601F01EFDA36B23B9012401F061
:102460003BFD204610BD0024F9E770B50446154633
:10247000866B026C5AB903681BB100200136A66353
:1024800070BD406800F0F2FF00236360F6E76DB9AD
:10249000806802F0DFFB226CA3681344A3606268CB
:1024A000934219D32368A3602846E7E7C06802F087
:1024B000D1FB226C5142E3689B1AE360226893428D
:1024C00002D263680B44E360022D01D00020D5E7FF
:1024D00026B1013E0020D1E72846CFE70020CDE716
:1024E00008B50346026C62B10846D9681144D96048
:1024F000D3F804C0614501D31968D960D96802F0E6
:10250000A9FB08BD38B5054601F0C4FC95F8454067
:1025100064B201E0013C64B2002C0ADD6B6A43B195
:1025200005F1240000F0F8FE0028F3D000F088FF49
:10253000F0E7FF2385F8453001F0CEFC01F0AAFC5E
:1025400095F8444064B201E0013C64B2002C0ADD1D
:102550002B6943B105F1100000F0DEFE0028F3D036
:1025600000F06EFFF0E7FF2385F8443001F0B4FC83
:1025700038BD38B5E0B10D46044601F08BFC236848
:10258000E26B216C01FB023060600020A063A3605D
:10259000013A02FB0133E360FF2384F8443084F8FE
:1025A0004530FDB9236963B901F096FC012038BDBF
:1025B0004FF0500383F31188BFF36F8FBFF34F8F3A
:1025C000FEE704F1100000F0A7FE0028ECD04FF069
:1025D000E0234FF08052C3F8042DBFF34F8FBFF3B9
:1025E0006F8FE1E704F11000FFF7DEFE04F1240035
:1025F000FFF7DAFED8E738B51D46049C0B4649B90B
:102600002460E063236401212046FFF7B2FF84F8D1
:102610004C5038BD2260F4E740B94FF0500383F3CB
:102620001188BFF36F8FBFF34F8FFEE710B584B0F3
:102630001C46844653B192B189B94FF0500383F3DD
:102640001188BFF36F8FBFF34F8FFEE74FF050033A
:1026500083F31188BFF36F8FBFF34F8FFEE76AB12B
:1026600050230393039B502B13D04FF0500383F35D
:102670001188BFF36F8FBFF34F8FFEE70029EFD0B4
:102680004FF0500383F31188BFF36F8FBFF34F8F69
:10269000FEE7012384F8463000949DF81830604628
:1026A000FFF7A9FF204604B010BD40B94FF050031A
:1026B00083F31188BFF36F8FBFF34F8FFEE7F0B541
:1026C00083B00C4615460746A1B101FB00F050301F
:1026D00001F0D6FA064650B1002380F8463000904B
:1026E0002B4600F1500221463846FFF784FF304662
:1026F00003B0F0BD0846EAE7F0B585B0019288B1B5
:102700000F461D460446B1B1022D20D1E36B012BCB
:102710001DD04FF0500383F31188BFF36F8FBFF3C9
:102720004F8FFEE74FF0500383F31188BFF36F8F95
:10273000BFF34F8FFEE7036C002BE5D04FF0500343
:1027400083F31188BFF36F8FBFF34F8FFEE700F065
:102750007DFE064658B9019B002B48D04FF0500330
:1027600083F31188BFF36F8FBFF34F8FFEE700260F
:102770003DE02A4639462046FFF777FE636A7BB97B
:1027800048B14FF0E0234FF08052C3F8042DBFF35F
:102790004F8FBFF36F8F01F09FFB012005B0F0BD9D
:1027A00004F1240000F0B8FD0028F4D04FF0E0233D
:1027B0004FF08052C3F8042DBFF34F8FBFF36F8FDC
:1027C000E9E701F089FB0020E8E702A800F0EAFD54
:1027D000012619E0002384F8443021E0002384F826
:1027E000453023E02046FFF78DFE00F075FC01F038
:1027F00051FBA26BE36B9A42BBD3022DB9D0019B74
:10280000002BDED0002EE0D001F066FB00F0CAFB0A
:1028100001F040FB94F8442052B2B2F1FF3FD9D00E
:1028200094F8452052B2B2F1FF3FD7D001F054FBEB
:1028300001A902A800F0C2FDD8B92046FFF7F9FDB2
:102840000028CFD0019904F1100000F031FD20469E
:10285000FFF758FE00F040FC0028C8D14FF0E023FD
:102860004FF08052C3F8042DBFF34F8FBFF36F8F2B
:10287000BDE72046FFF746FE00F02EFC00208DE766
:102880002DE9F84390B10F4616461C460546B1B1F6
:10289000022C20D1EB6B012B1DD04FF0500383F3A2
:1028A0001188BFF36F8FBFF34F8FFEE74FF05003D8
:1028B00083F31188BFF36F8FBFF34F8FFEE7036C75
:1028C000002BE5D04FF0500383F31188BFF36F8FD7
:1028D000BFF34F8FFEE701F0C7FBEFF311894FF015
:1028E000500383F31188BFF36F8FBFF34F8FAA6B31
:1028F000EB6B9A4206D3022C04D0002089F3118896
:10290000BDE8F88395F845804FFA88F822463946A5
:102910002846FFF7AAFDB8F1FF3F06D008F10103F2
:102920005BB285F845300120E8E76B6A0BB90120FE
:10293000E4E705F1240000F0EFFC18B126B1012016
:102940003060DBE70120D9E70120D7E7F0B585B09B
:10295000019290B10F460446C1B100F077FD0646E2
:1029600000BB019B002B5ED04FF0500383F3118816
:10297000BFF36F8FBFF34F8FFEE74FF0500383F32A
:102980001188BFF36F8FBFF34F8FFEE7036C002BEF
:10299000E3D04FF0500383F31188BFF36F8FBFF381
:1029A0004F8FFEE700263EE039462046FFF798FDB0
:1029B000013DA563236923B901F08EFA012005B01A
:1029C000F0BD04F1100000F0A7FC0028F4D04FF097
:1029D000E0234FF08052C3F8042DBFF34F8FBFF3B5
:1029E0006F8FE9E701F078FA0020E8E702A800F02D
:1029F000D9FC012621E0002384F8443029E000239B
:102A000084F845302BE02046FFF77CFD00F064FBA6
:102A100009E02046FFF776FD00F05EFB2046FFF759
:102A200017FD00283FD101F035FAA56B002DBBD171
:102A3000019B002BD6D0002ED8D001F04DFA00F02B
:102A4000B1FA01F027FA94F844305BB2B3F1FF3FDA
:102A5000D1D094F845305BB2B3F1FF3FCFD001F055
:102A60003BFA01A902A800F0A9FC0028D1D1204618
:102A7000FFF7EEFC0028C6D0019904F1240000F015
:102A800017FC2046FFF73EFD00F026FB0028CAD1C8
:102A90004FF0E0234FF08052C3F8042DBFF34F8F67
:102AA000BFF36F8FBFE7002089E700000023072BEB
:102AB0000CD8074A52F833200AB10133F7E7044A29
:102AC00042F8331002EBC30358607047704700BFF1
:102AD0008801002070B504460D46164601F0DAF96B
:102AE00094F844305BB2B3F1FF3F0DD094F8453019
:102AF0005BB2B3F1FF3F0BD001F0EEF9A36B5BB11A
:102B00002046FFF7FFFC70BD002384F84430EDE75A
:102B1000002384F84530EFE73246294604F12400CB
:102B200000F0DEFBECE70000084B1B681B6823B9D4
:102B3000074B4FF0FF321A607047044B1B68DB688D
:102B4000DB685A68024B1A60704700BFCC01002056
:102B5000780600202DE9F04780460D461746994635
:102B6000089EDDF824A00A9C9200A521206B02F0AB
:102B70007FF8236B07F18042013A03EB820727F0CD
:102B800007074FF0000CBCF10F0F0BD815F80C2005
:102B900004EB0C0383F8342015F80C3013B10CF15E
:102BA000010CF0E7002384F84330372E00D9372694
:102BB000E662E66400252565201DFFF700FC04F1B0
:102BC0001800FFF7FCFB2461C6F13806A6616462B9
:102BD000656584F858504A464146384601F030F958
:102BE0002060BAF1000F01D0CAF80040BDE8F087BC
:102BF00038B5002407E004EB840293000E48184423
:102C0000FFF7D2FB0134372CF5D90C4D2846FFF7DE
:102C1000CBFB0B4C2046FFF7C7FB0A48FFF7C4FB72
:102C20000948FFF7C1FB0948FFF7BEFB084B1D60D1
:102C3000084B1C6038BD00BFD40100204C060020AA
:102C40006006002080060020AC06002098060020C8
:102C5000CC010020D001002010B5044601F01AF983
:102C6000224A136801331360214B1B685BB1214B6F
:102C70001B686BB91E4B1B68DA6AE36A9A4207D875
:102C80001B4B1C6004E01A4B1C601368012B29D0FD
:102C9000194A1368013313606364E06A174B1B68B9
:102CA000984201D9154B186000EB8000211D144B90
:102CB00003EB8000FFF786FB01F00EF90D4B1B685C
:102CC0007BB10B4B1B68DA6AE36A9A4209D24FF078
:102CD000E0234FF08052C3F8042DBFF34F8FBFF3B2
:102CE0006F8F10BDFFF784FFD2E700BF34060020CE
:102CF000C801002094060020440600204806002059
:102D0000D401002010B5044690F8593063B1012B6E
:102D100011D0022B0ED04FF0500383F31188BFF374
:102D20006F8FBFF34F8FFEE7006B01F021F8204655
:102D300001F01EF810BD01F01BF8FBE70F4B1B68FC
:102D4000D3B110B501F0A6F80D4BDB68DC68201D8F
:102D5000FFF75CFB0B4A1368013B1360074A1368DB
:102D6000013B136001F0B8F82046FFF7CBFF034B9F
:102D70001B68002BE6D110BD704700BF380600204D
:102D8000AC0600203406002008B5FFF7D7FF074B3C
:102D90001B68012BF9D94FF0E0234FF08052C3F8A4
:102DA000042DBFF34F8FBFF36F8FEEE7D4010020E8
:102DB00070B504460D46174B1E68174B1868043053
:102DC000FFF724FBB4F1FF3F0DD03444124B1B68D6
:102DD0005C60A64210D9114B18680F4B196804317A
:102DE000FFF7FBFA70BD002DEFD00B4B19680431D3
:102DF0000B48FFF7E7FAF5E70A4B1868064B196826
:102E00000431FFF7EAFA084B1B68A342EAD9064BE4
:102E10001C60E7E7C0060020C8010020D0010020A8
:102E200098060020CC0100207806002030B587B03D
:102E30000B9C7CB10C9DB5B15C250495049D5C2D6B
:102E40001AD04FF0500383F31188BFF36F8FBFF395
:102E50004F8FFEE74FF0500383F31188BFF36F8F5E
:102E6000BFF34F8FFEE74FF0500383F31188BFF39A
:102E70006F8FBFF34F8FFEE70C9D2C63022485F804
:102E8000594000240394029505AC01940A9C0094D7
:102E9000FFF760FE0C98FFF7DFFE059807B030BD26
:102EA0002DE9F04385B00746884614461E4690003B
:102EB00000F0E6FE00B381465C2000F0E1FE05462E
:102EC000B0B1C0F83090E5B1002385F859300393D4
:102ED00002950D9B01930C9B00933346224641467D
:102EE0003846FFF737FE2846FFF7B6FE012005E01B
:102EF000484600F03DFFE6E74FF0FF3005B0BDE883
:102F0000F0834FF0FF30F9E710B588B00024059446
:102F1000069407AA06A905A800F038FE059B0293AF
:102F2000069B019300942346079A18491848FFF717
:102F30007DFF184B186040B100F0BEFB012806D0A1
:102F4000B0F1FF3F18D008B010BD0020F6E74FF0F9
:102F5000500383F31188BFF36F8FBFF34F8F0E4B76
:102F60004FF0FF321A600D4B01221A600C4B002209
:102F70001A6001F019F8E6E74FF0500383F3118867
:102F8000BFF36F8FBFF34F8FFEE700BF6062000893
:102F9000892D000874060020780600209406002081
:102FA000C0060020024A136801331360704700BF57
:102FB00040060020014B1868704700BFC006002083
:102FC000F8B53A4B1B68002B64D1394B1D680135AD
:102FD0001D60C5B9374B1B681B6843B14FF05003E8
:102FE00083F31188BFF36F8FBFF34F8FFEE7314A32
:102FF0001168314B186810601960304A136801334A
:103000001360FFF791FD2E4B1B68AB4238D90027A8
:103010002C4B1B68DB6A03EB83039A002A4B9B58FB
:10302000012B3CD901273AE00127224B1B681B6882
:1030300043B3204B1B68DB68DC6863689D4226D382
:10304000261D3046FFF7E2F9A36A1BB104F1180010
:10305000FFF7DCF9E36A1D4A1268934201D91B4A63
:10306000136003EB83039A00314617481044FFF7BF
:10307000A9F9E26A134B1B68DB6A9A42D4D2D4E7FF
:103080000027D2E70E4B4FF0FF321A60C0E70C4A20
:103090001360BDE70E4A13680133136000270D4B20
:1030A0001B6803B101273846F8BD00BF4006002069
:1030B000C0060020CC010020D00100207C060020AA
:1030C00078060020C8010020D40100204806002016
:1030D0003C060020C406002038B5354B1B6843B9B8
:1030E0004FF0500383F31188BFF36F8FBFF34F8FFF
:1030F000FEE700F0CFFE2E4B1A68013A1A601B68FB
:10310000002B4FD12B4B1B680BB900244BE0002444
:10311000294B1B681BB3284BDB68DC6804F11800E3
:10312000FFF774F9251D2846FFF770F9E06A234B75
:103130001B68984201D9214B186000EB800029469A
:103140001F4B03EB8000FFF73DF9E26A1D4B1B6844
:10315000DB6A9A42DCD31C4B01221A60D8E70CB11F
:10316000FFF7E2FC194B1C6884B9174B1C68D4B1FB
:103170004FF0E0234FF08052C3F8042DBFF34F8F80
:10318000BFF36F8F01240EE0013C07D0FFF718FF5B
:103190000028F9D00C4B01221A60F5E70B4B0022F6
:1031A0001A60E2E7002400F097FE204638BD00BF19
:1031B000400600203406002080060020480600203B
:1031C000D4010020C8010020C40600203C060020D5
:1031D00010B5A8B10446104B1B6843B14FF0500323
:1031E00083F31188BFF36F8FBFF34F8FFEE7FFF7B5
:1031F000D9FE00212046FFF7DBFDFFF76DFF48B940
:103200004FF0E0234FF08052C3F8042DBFF34F8FEF
:10321000BFF36F8F10BD00BF400600201F4B1B681F
:103220001BB11F4B01221A6070471D4B00221A6010
:103230001C4B1B6803EB83018A001B498A585AB94F
:103240000BB1013BF6E74FF0500383F31188BFF356
:103250006F8FBFF34F8FFEE703EB830082000A44BA
:1032600050684068506003EB830C4FEA8C020832D0
:10327000114488420BD003EB830291000A4A0A44AE
:103280005268D168094A1160064A13607047406865
:1032900062469100044A0A445060ECE74006002070
:1032A000C406002048060020D4010020C8010020E8
:1032B00058B110B50C46094A11681831FFF78DF85E
:1032C00001212046FFF774FD10BD4FF0500383F33A
:1032D0001188BFF36F8FBFF34F8FFEE7C801002047
:1032E00038B570B10D4614460A4A11681831FFF717
:1032F00069F80CB14FF0FF3521462846FFF758FD1D
:1033000038BD4FF0500383F31188BFF36F8FBFF3C5
:103310004F8FFEE7C801002038B5C368DC6824B3CE
:1033200004F118052846FFF771F8184B1B682BBBF2
:10333000251D2846FFF76AF8E06A154B1B6898427E
:1033400001D9134B186000EB80002946114B03EBA9
:103350008000FFF737F8E26A0F4B1B68DB6A9A427E
:1033600011D901200D4B186038BD4FF0500383F385
:103370001188BFF36F8FBFF34F8FFEE729460848D0
:10338000FFF720F8E7E70020EEE700BF4006002047
:1033900048060020D4010020C8010020C4060020F7
:1033A00080060020034B1B680360034B1B684360CF
:1033B000704700BF7C060020C0060020D8B170B561
:1033C0000C46054601B300F065FD1B4B19686B68A0
:1033D000C81A2268B2F1FF3F27D0184E3668D5F8D8
:1033E00000C0B44501D08B4224D9824215D80023B5
:1033F000236001241AE04FF0500383F31188BFF3D8
:103400006F8FBFF34F8FFEE74FF0500383F31188A8
:10341000BFF36F8FBFF34F8FFEE75B1A1344236038
:103420002846FFF7BFFF002400E0002400F054FD11
:10343000204670BD0124F9E7C00600207C0600206C
:10344000014B01221A607047C4060020054B1B681F
:1034500033B1054B1B680BB1002070470220704749
:1034600001207047940600204006002000283BD031
:1034700038B504461E4B1B68834208D04FF05003FA
:1034800083F31188BFF36F8FBFF34F8FFEE7036D98
:1034900043B94FF0500383F31188BFF36F8FBFF32D
:1034A0004F8FFEE7013B0365C16AC26C91421DD09C
:1034B0000BB1002038BD051D2846FEF7A7FFE06CC4
:1034C000E062C0F13803A3610A4B1B68984201D93E
:1034D000084B186000EB80002946074B03EB800087
:1034E000FEF770FF0120E5E7002070470020E1E7CC
:1034F000C801002048060020D4010020F8B5A8B17A
:103500000E4617461C46054600F0C4FC0CB16B6D18
:10351000236095F85810C9B2022385F858307B1EF5
:10352000032B23D8DFE803F00B151A1D4FF05003CF
:1035300083F31188BFF36F8FBFF34F8FFEE76B6D7F
:103540001E436E650124012914D000F0C5FC2046FD
:10355000F8BD6B6D01336B650124F4E76E650124E2
:10356000F1E7022904D06E650124ECE70124EAE7C3
:103570000024E8E72E1D3046FEF748FFE86A154BA9
:103580001B68984201D9134B186000EB800031464C
:10359000114B03EB8000FEF715FFAB6A43B14FF010
:1035A000500383F31188BFF36F8FBFF34F8FFEE794
:1035B000EA6A0A4B1B68DB6A9A42C6D94FF0E023DD
:1035C0004FF08052C3F8042DBFF34F8FBFF36F8FBE
:1035D000BBE700BF48060020D4010020C80100203E
:1035E000064B1A681368B3FA83F35B09036013B9D7
:1035F000D368186870470020704700BFC8060020D5
:1036000008B54160006191420CD8D21A83699A4290
:1036100001D3012008BD011D094B1868FEF7DDFE2E
:103620000020F7E79A4201D2994206D2011D054BCC
:103630001868FEF7D2FE0020ECE70120EAE700BFA1
:10364000CC060020C806002030B583B000F022FC74
:10365000114B1B681BB100F03FFC03B030BD0F4D98
:103660002846FEF7A1FE0E4C2046FEF79DFE0D4BB0
:103670001D600D4B1C60002300930C4B0C4A102165
:103680000A20FEF7C9FF044B18600028E3D009495F
:10369000FFF70CFADFE700BFEC07002070070020FF
:1036A00084070020C8060020CC0600209C070020CC
:1036B000D00600206862000810B588B0FFF7C4FF8C
:1036C000124B1B68CBB100240594069407AA06A9E7
:1036D00005A800F067FA059B0293069B019302235D
:1036E00000932346079A0A490A48FFF79FFB0A4BB3
:1036F000186010B1012008B010BD4FF0500383F3E3
:103700001188BFF36F8FBFF34F8FFEE7EC070020E8
:1037100070620008F9390008F0070020B8B19C4633
:1037200003461848006858B300B585B0009101926F
:10373000029305291CDCFFF789FE022810D0002324
:103740001A4669460F480068FEF7D6FF15E04FF0AD
:10375000500383F31188BFF36F8FBFF34F8FFEE7E2
:103760000023069A694607480068FEF7C5FF04E093
:10377000002362466946FFF783F805B05DF804FB55
:1037800000207047EC07002070B582B01A4B1B6810
:103790001A6852B3DB681E68DC68251D2846FEF7F0
:1037A00035FE636A20469847E369012BEED1A36991
:1037B00033449E4207D26360246129460E4B186849
:1037C000FEF70BFEE2E7002100910B463246204651
:1037D000FFF7A4FF0028D9D14FF0500383F31188DD
:1037E000BFF36F8FBFF34F8FFEE7044A10680249A3
:1037F0000860136002B070BDC8060020CC0600202F
:1038000038B50546FFF7D6FB0446074B1B688342D5
:1038100005D800232B60044B1C60204638BDFFF701
:10382000B3FF01232B60F6E79807002070B582B044
:1038300006460D4614490968C968CC68201DFEF784
:10384000E5FDE169012904D0636A2046984702B08A
:1038500070BDA16933462A4631442046FFF7D0FEA9
:103860000028F1D0002100910B4632462046FFF798
:1038700055FF0028E8D14FF0500383F31188BFF3C0
:103880006F8FBFF34F8FFEE7C806002070B582B080
:1038900006460C46FFF786FB01A8FFF7B1FF019B28
:1038A0002BBB05460CB9B0421AD22CB1124B1B6887
:1038B0001C68B4FA84F464092246711B0F4B186823
:1038C000FFF708F9FFF708FC98B94FF0E0234FF035
:1038D0008052C3F8042DBFF34F8FBFF36F8F08E002
:1038E000FFF7FAFB29463046FFF7A0FF01E0FFF79C
:1038F000F3FB02B070BD00BFCC060020EC07002037
:1039000010B588B002E0049B002B0FDA002204A956
:10391000384B1868FFF71AF8002869D0049B002B71
:10392000F1DA07990698059B9847ECE7069C6369CE
:1039300013B1201DFEF76AFD03A8FFF761FF049B8A
:10394000092BE3D801A252F823F000BF7539000813
:1039500075390008753900080D390008BB390008B1
:10396000E139000875390008753900080D3900087B
:10397000BB390008059BA169024619442046FFF7A0
:103980003FFE0028C2D0636A20469847E369012BB6
:10399000BCD1A269002100910B4605980244204643
:1039A000FFF7BCFE0028B1D14FF0500383F311881C
:1039B000BFF36F8FBFF34F8FFEE70599A16131B160
:1039C0000346024601442046FFF71AFE9EE74FF0E9
:1039D000500383F31188BFF36F8FBFF34F8FFEE760
:1039E00094F82C30002B91D1204600F0C1F98DE7DE
:1039F00008B010BDEC07002000B583B001A8FFF7A8
:103A0000EFFD0199FFF742FFFFF77AFFF6E70000AD
:103A1000EFF3058393B9EFF3108393B90C4B186858
:103A2000022804D080B90A4B01221A607047EFF3D4
:103A30001183002BF6D06FF0050070476FF0050082
:103A400070476FF0050070474FF0FF30704700BFC0
:103A5000500A002008B5EFF30583B3B9EFF31083E4
:103A6000B3B90E4B1B68022B08D0012B13D10B4BA3
:103A700002221A60FFF748FA002008BDEFF3118216
:103A8000002AF2D06FF00500F7E76FF00500F4E7C9
:103A90006FF00500F1E74FF0FF30EEE7500A00202D
:103AA000F0B587B000240494EFF30584002C43D1D3
:103AB000EFF31083002B3FD1334B1B68022B16D042
:103AC000002839D000238DF8173062B3156895B1FE
:103AD000936903B918235C1E372C51D8546814F02D
:103AE000010F4FD156694EB14FEA960C08E0EFF343
:103AF00011830BBBE4E70DF11705E9E74FF0800CEC
:103B000094682CB1D7685B2F02D9176907B1B6B991
:103B100014B14FF0FF340CE0D46894B914699CB12F
:103B20004FF0FF3405E0002418234FF0800C0DF116
:103B30001705012C0AD0ACB1049807B0F0BD0124E0
:103B4000F7E74FF0FF34F4E70024F2E714699268D6
:103B50000292019400930B4662462946FFF766F9EC
:103B60000490E9E704AA019200930B461FFA8CF235
:103B70002946FFF795F90128DED000230493DBE7FF
:103B80000020DAE70020D8E7500A0020034B03604A
:103B9000034B0B6080231360704700BFF4090020C3
:103BA000F4070020034B0360034B0B604FF480735A
:103BB00013607047540E0020540A0020124A12F07D
:103BC000070F1ED0D11D21F00701C1F5005313448A
:103BD0000A460E480260002141601344083B23F06E
:103BE00007030B48036059601960991A516013600C
:103BF000084B1960084B1960084B4FF000421A60DF
:103C000070474FF40053E4E7B40E0020C02E0020AC
:103C1000B00E0020BC2E0020B82E0020B42E0020B4
:103C2000154B1A461B688342FBD3516802EB010C0B
:103C3000844509D0416800EB010C634509D003605D
:103C4000904218D01060704740680144516010469F
:103C5000F0E710B4094C2468A3420AD05B68194409
:103C6000416013681B680360904200D0106010BC74
:103C700070470460F8E77047C02E0020B00E0020A7
:103C800070B50546FFF78EF9344B1B68A3B1344B72
:103C90001B681D424AD135B1083515F0070F02D017
:103CA00025F007050835002D42D02E4B1B68AB428E
:103CB0004DD32D4A146804E0FFF780FFE7E7224662
:103CC0001C466368AB4202D22368002BF7D1234B1A
:103CD0001B68A3423DD016680836236813606368EA
:103CE0005B1B102B10D9601910F0070F08D04FF094
:103CF000500383F31188BFF36F8FBFF34F8FFEE73D
:103D000043606560FFF78CFF626816490B689B1A79
:103D10000B60164909688B4201D214490B60104BA5
:103D20001B68134363600023236002E0002600E069
:103D30000026FFF7D1F916F0070F0CD04FF0500313
:103D400083F31188BFF36F8FBFF34F8FFEE7002619
:103D5000EFE70026EDE7304670BD00BFB00E002053
:103D6000B42E0020B82E0020C02E0020BC2E002033
:103D700080B338B50446A0F1080550F8043C164A53
:103D80001268134208D14FF0500383F31188BFF338
:103D90006F8FBFF34F8FFEE750F8081C41B14FF013
:103DA000500383F31188BFF36F8FBFF34F8FFEE78C
:103DB00023EA020340F8043CFFF7F4F854F8041C2B
:103DC000064A13680B4413602846FFF729FFFFF7E4
:103DD00083F938BD704700BFB42E0020B82E0020F4
:103DE00082B0002301930D4B1B68B3F1FF3F08D055
:103DF0004FF0500383F31188BFF36F8FBFF34F8FE2
:103E0000FEE74FF0500383F31188BFF36F8FBFF3CA
:103E10004F8F019B002BFCD002B070471000002098
:103E200006480068006880F3088862B661B6BFF390
:103E30004F8FBFF36F8F00DF00BF000008ED00E081
:103E40004FF0807340F8043C21F0010140F8081C59
:103E5000034B40F80C3C40F8202C4038704700BF22
:103E6000E13D00080000000000000000000000002C
:103E7000074B19680868B0E8F00F80F30988BFF3B2
:103E80006F8F4FF0000080F311884EF00D0E7047D9
:103E9000C80100204FF0500383F31188BFF36F8FE8
:103EA000BFF34F8F0B4A136801331360012B00D00F
:103EB00070474FF0E023D3F8043D13F0FF0FF7D025
:103EC0004FF0500383F31188BFF36F8FBFF34F8F11
:103ED000FEE700BF10000020094B1B6843B94FF0FC
:103EE000500383F31188BFF36F8FBFF34F8FFEE74B
:103EF000013B034A13600BB983F31188704700BF7D
:103F00001000002000000000000000000000000081
:103F1000EFF30980BFF36F8F0D4B1A6820E9F00FA4
:103F200010602DE908404FF0500080F31188FFF732
:103F300075F94FF0000080F31188BDE8084019685A
:103F40000868B0E8F00F80F30988BFF36F8F7047FF
:103F5000C801002008B54FF0500383F31188BFF368
:103F60006F8FBFF34F8FFFF72BF828B14FF0E0238F
:103F70004FF08052C3F8042D002383F3118808BD4D
:103F80004FF0E022002313619361054B1B68054944
:103F9000A1FB03139B09013B536107231361704786
:103FA0000C000020D34D621010B582B02A4B1A7855
:103FB000D2B20192FF221A701B78DBB28DF8033067
:103FC0009DF8033003F05003244A1370244B07225A
:103FD0001A6009E0224A1368013B13609DF8033020
:103FE0005B00DBB28DF803309DF8033013F0800FD7
:103FF000F0D11B4B1B68032B08D04FF0500383F309
:104000001188BFF36F8FBFF34F8FFEE71B02144A77
:10401000136003F4E0631360019BDBB20E4A13707C
:104020004FF0E023D3F8202D42F47002C3F8202D86
:10403000D3F8202D42F07042C3F8202DFFF7A0FFE7
:104040000024084B1C60FFF7EBFEFFF7E7F8FFF7D3
:10405000C7FE204602B010BD00E400E0C82E0020DC
:10406000CC2E002010000020EFF305830F2B0FD97A
:10407000114A9B5CDBB2114A12789A4208D94FF080
:10408000500383F31188BFF36F8FBFF34F8FFEE7A9
:104090004FF0E023D3F80C3D03F4E063084A1268C4
:1040A000934208D94FF0500383F31188BFF36F8F09
:1040B000BFF34F8FFEE77047F0E300E0C82E00200B
:1040C000CC2E002008B501460F2000F007FA00B101
:1040D000012008BD10B582B004460DF10701202073
:1040E00000F0FCF908B902B010BD9DF8071001F00E
:1040F0000F018DF8071041EA0411C9B28DF80710BD
:10410000202000F013FA0028EDD00120EBE700009A
:1041100010B582B004460DF10701202000F0DEF951
:10412000034610B9184602B010BD0DF10601232058
:1041300000F0D4F903460028F4D09DF8072012F0CF
:10414000F00F07D1254B1B7823F00F035BB213430D
:104150008DF80730012C2FD0022C1CD00CB100237D
:10416000E0E79DF807301D4A137003F00F038DF848
:1041700007309DF80710202000F0D8F903460028EA
:10418000D0D09DF80610232000F0D0F90346002877
:10419000C8D00123C6E79DF8073023F008038DF847
:1041A00007309DF8063003F0F7038DF8063043F032
:1041B00008038DF80630DCE79DF8073003F0F703BD
:1041C0008DF8073043F008038DF807309DF806306E
:1041D00023F008038DF80630CBE700BFD02E002077
:1041E00010B582B004460DF10701232000F076F9E6
:1041F00008B902B010BD9DF8071001F0CF018DF88D
:10420000071041EA0411C9B28DF80710232000F00D
:104210008DF90028EDD00120EBE710B582B00446FF
:1042200004280CD0A4B3012C64D0022C00F095809B
:10423000032C00F0C8800123184602B010BD0DF118
:1042400007012E2000F04AF903460028F4D09DF81B
:10425000071001F01F018DF807102E2000F066F9FD
:1042600003460028E8D00DF10701242000F036F9BC
:1042700003460028E0D09DF8071001F0BF018DF83B
:104280000710242000F052F903460028CAD1D3E7D2
:104290000DF10701242000F021F903460028CBD0BE
:1042A0009DF8071001F0BF018DF8071041F04001A3
:1042B0008DF80710242000F039F903460028BBD000
:1042C0000DF107012E2000F009F903460028B3D0B4
:1042D0009DF8071001F01F018DF8071041EA8411C5
:1042E000C9B28DF807102E2000F020F903460028EF
:1042F00099D1A1E70DF10701242000F0EFF8034662
:10430000002899D09DF8071001F0BF018DF8071023
:1043100041F040018DF80710242000F007F9034612
:10432000002889D00DF107012E2000F0D7F80346B0
:10433000002881D09DF8073003F01F038DF8073067
:1043400043EA8413D9B28DF807102E2000F0EEF85E
:10435000034600287FF469AF6EE70DF107012420C2
:1043600000F0BCF8034600283FF466AF9DF8071044
:1043700001F0BF018DF8071041F040018DF80710E2
:10438000242000F0D3F8034600283FF455AF0DF188
:1043900007012E2000F0A2F8034600283FF44CAF9E
:1043A0009DF8073003F01F038DF8073043EA8413AC
:1043B000D9B28DF807102E2000F0B8F80346002877
:1043C0007FF436AF38E70DF10701242000F086F8BE
:1043D000034600283FF430AF9DF8071001F0BF01FD
:1043E0008DF8071041F040018DF80710242000F0EF
:1043F0009DF8034600283FF41FAF0DF107012E2062
:1044000000F06CF8034600283FF416AF9DF8073023
:1044100003F01F038DF8073043EA8413D9B28DF8F7
:1044200007102E2000F082F8034600283FF404AF66
:10443000012301E710B582B004460DF106012820E2
:1044400000F04CF8024610B9104602B010BD0DF154
:104450000701292000F042F802460028F4D0BDF9F7
:10446000063023800DF106012A2000F037F80246BD
:104470000028E9D00DF107012B2000F02FF80246AB
:104480000028E1D0BDF8063063800DF106012C2034
:1044900000F024F802460028D6D00DF107012D20A7
:1044A00000F01CF802460028CED0BDF80630A380EC
:1044B0000122C9E710B582B004460DF107012F2093
:1044C00000F00CF838B19DF8073003F01F038DF8A9
:1044D00007302370012002B010BD000030B585B058
:1044E0000C4660F07F008DF80C00FF238DF80D3036
:1044F0000C4D002210212846FCF77AFE642300931D
:10450000022302AA03A90848FDF7A5FD01221021F4
:104510002846FCF76DFE9DF809302370012005B098
:1045200030BD00BF00080140E800002010B582B097
:1045300000F07F008DF804008DF80510094C002272
:1045400010212046FCF754FE6423022201A90648EC
:10455000FDF7A5FC012210212046FCF749FE0120B1
:1045600002B010BD00080140E8000020704770470D
:1045700070470020704700207047002070470020DF
:1045800070470000014B0360704700BF3C640008A7
:10459000704700207047704770477047043070477D
:1045A000024A0260024A0260704700BF9C64000831
:1045B0003C64000810B514464FF4FA7392B20248F6
:1045C000FDF797F8204610BD9800002000B585B093
:1045D0000123019300231A4601A903480068FEF74E
:1045E0008BF805B05DF804FBD42E002010B584B024
:1045F0000C460B78012B02D083B104B010BD02230E
:104600000193D1E9000104AB03E9030000231A463A
:1046100001A90C480068FEF76FF8EEE701220221BD
:104620004068FEF76BFF0223019394E8030004AB9C
:1046300003E9030000231A4601A902480068FEF7B7
:104640005BF8DAE7D42E0020012800D070474FF63F
:10465000FF739942FAD110B5134C144B2360144BDD
:104660002360144BE360192363604FF07E53A36013
:10467000114A1249204600F0B6FA114A114B136054
:10468000114B1360114BC3F8F440C3F8F82000221B
:10469000C3F8F0200E4B0F4A1A600F4A1A600F4AF7
:1046A000C3F8D42010BD00BFD42F00203C64000804
:1046B0009C64000800007A4500000020A145000825
:1046C000CC3000202864000888640008D82E002020
:1046D000F02F00205C640008786400089800002037
:1046E00010B50446034B0360034B036001F086FCE6
:1046F000204610BD9C6400083C64000810B50446C8
:10470000024B036001F07AFC204610BD3C640008B7
:1047100000B583B00DF10700FFF7CCFE20B19DF886
:10472000070003B05DF804FB0020FAE72DE9F04133
:1047300082B006460D4614460368DB6898475FFA68
:1047400080F8A04528BFA0465FFA88F8002420E042
:10475000B768BDF900000011FBF770FE3946FBF7A2
:10476000FFFC2860B768BDF902000011FBF766FE88
:104770003946FBF7F5FC6860B768BDF90400001125
:10478000FBF75CFE3946FBF7EBFCA8600C35013407
:10479000E4B2444506D26846FFF74CFE0028D7D164
:1047A000204600E0204602B0BDE8F08100B583B0AD
:1047B0000DF10700FFF786FC9DF80730332B03D07F
:1047C000002003B05DF804FB0020FFF709FD08B9E5
:1047D0000020F6E70220FFF79BFC08B90020F0E775
:1047E0000320FFF777FC08B90020EAE70220FFF773
:1047F00014FD08B10120E4E70020E2E77047000063
:1048000030B595B007AC494D0FCD0FC40FCD0FC4D7
:1048100095E8070003C422700022CDF84520CDF8AA
:1048200049208DF84D200C210A20FDF73EFF404B1A
:10483000186057E007AC3F4D0FCD0FC495E803005B
:1048400084E8030007A8FBF783FC4FF4FA7382B2F5
:1048500007A93948FCF74DFFFEF7A4FB374800F0E5
:1048600051F9054600240CE0012204A9334800F068
:1048700053F94FF4FA730C2204A92F48FCF739FFBF
:104880000134AC42F0D34FF4FA7301222C492A4888
:10489000FCF72FFFFEF720FC24E007AC294D0FCDDD
:1048A0000FC42B68237007A8FBF752FC4FF4FA7370
:1048B00082B207A92048FCF71CFF13E00DF11C0C85
:1048C000214C0FCCACE80F0094E807008CE80700FF
:1048D00007A8FBF73DFC4FF4FA7382B207A916480C
:1048E000FCF707FF4FF4FA7201A9114B1868FEF7A5
:1048F0002DF80128E2D1019B012B9BD0022BF1D195
:104900009DF80830012BC8D0002BEBD1039A0F493A
:1049100007A800F0B5F907A8FBF71AFC4FF4FA73E3
:1049200082B207A90448FCF7E4FEDBE760610008F7
:10493000D42E00207862000898000020D82E002095
:10494000EC62000890620008C4620008A4620008DB
:1049500008B50649064800F0CEF8064B1A68064B23
:104960005A604FF4FA70FEF733FCFAE7E42F0020A8
:10497000D82E0020DC000020CC30002010B5054CE3
:104980002178054800F0F7F8012221460348FDF799
:10499000BAF810BDC8300020F02F00209800002089
:1049A00008B5012202490348FDF7ADF808BD00BF74
:1049B000C83000209800002070B592B03F4B109393
:1049C0003F4B10933F4B1B6811933C230B933E4B83
:1049D0000C9310AB0D933D483D4981620122FDF7D8
:1049E00092F816E00C9800F0D7F83A4900F094F9E4
:1049F000002841D001238DF838300D9803681B68DA
:104A00000EA998470C9800F0C3F802E00C9800F04B
:104A1000BFF8C820FEF7DCFB2B4800F0A9F828B34C
:104A2000294E304600F0A4F8044602462A4901A85F
:104A300000F026F901A8FBF78BFB244D4FF4FA7325
:104A400082B201A92846FCF754FE304600F0A4F8D3
:104A500001464FF4FA73A2B22846FCF74AFE4FF41F
:104A6000FA7301221D492846FCF743FE0C9800F01A
:104A70007FF804460328B5D8072CC7D90C9800F056
:104A80008BF8174900F048F90028BFD00C9800F0C7
:104A900083F80FAA134900F013F90F9A0B9B9A425F
:104AA000B4D800238DF838300D9803681B680EA920
:104AB00098470C9800F06CF8ABE700BF6C640008F6
:104AC000BC640008DC000020F02F002098000020CB
:104AD000C8300020F0620008E0620008EC620008C4
:104AE000F86200080063000808B54FF6FF71012066
:104AF000FFF7AAFD08BD08B5D0F8F40003681B68ED
:104B0000984708BDD0F8F000024BA3FB0030C00866
:104B1000704700BFABAAAAAA2DE9F0410646884615
:104B20001446FFF7EFFF0546A04200D8044604EB09
:104B30004407BF003A463146404600F08BF8AC428D
:104B40000AD10023C6F8F030D6F8F80003685B6895
:104B500098472046BDE8F0812D1B05EB4505AD00CB
:104B60002A46F119304600F075F8C6F8F050F0E723
:104B7000D0F8CC007047D0F8CC30632B06D85A1C44
:104B8000C0F8CC2018440171012070470020704704
:104B90000023C0F8CC307047043070470C480D49F2
:104BA0000D4A002302E0D458C4500433C4188C4288
:104BB000F9D30A4A0A4C002301E013600432A242EE
:104BC000FBD3FCF7EFFB00F021F8FBF7D5FC7047B7
:104BD00000000020780000205067000878000020C6
:104BE000E8300020FEE70B460146184600F000B80A
:104BF00010B504460448134620B10A460220214657
:104C0000AFF3008010BD00BF0000000070B50026AB
:104C10000C4D0D4C641BA410A64209D101F094FA6E
:104C200000260A4D0A4C641BA410A64205D170BD93
:104C300055F8043B98470136EEE755F8043B984792
:104C40000136F2E74467000844670008446700083B
:104C50004C6700080A44914200F1FF3300D17047CD
:104C600010B511F8014B914203F8014FF9D110BD75
:104C700003460244934200D1704703F8011BF9E751
:104C80000EB46FF0004100B59CB01DAB02900690D1
:104C9000079104910848094953F8042B05910068CD
:104CA00002A9019300F0AAF80022029B1A701CB01E
:104CB0005DF804EB03B07047140000200802FFFF0A
:104CC0000EB44FF4017230B59CB01FAC54F8045BC5
:104CD000ADF8142002900690FBF73AFA0B4B0390C4
:104CE0000B9300230F9314934FF6FF73079008481C
:104CF000ADF816302A46234602A90068019400F058
:104D0000D7F91CB0BDE8304003B07047154D00081E
:104D100014000020002070470A7870B56AB970BD91
:104D20009A4209D10C46054614F8013F002BF6D0F3
:104D300015F8016F9E42F7D001300378002BEFD1B8
:104D40001846ECE72DE9F0478E6882469E420C46F5
:104D500090461F4638D88A8912F4906F32D0256861
:104D600009690133A5EB010965694B4405EB45056C
:104D700005EBD5756D109D4238BF1D46530531D5E5
:104D8000294600F0F1FF064650B90C234FF0FF30E2
:104D9000CAF80030A38943F04003A381BDE8F0873F
:104DA0004A462169FFF756FFA38923F4906343F035
:104DB0008003A38126614E4426603E466561A5EBD3
:104DC0000905A560BE4200D93E46324641462068EC
:104DD00000F048FFA36800209B1BA36023683344B6
:104DE0002360DBE72A4601F033F806460028E1D1CC
:104DF0005046216900F050FFC7E700002DE9F04F51
:104E000098468B8907461B060D4614469DB00ED565
:104E10000B6963B9402100F0A7FF2860286120B921
:104E20000C233B604FF0FF30D1E040236B61002347
:104E3000099320238DF8293030234FF00109CDF854
:104E40000C80DFF8A4818DF82A3023469A4613F8A7
:104E5000012B0AB1252AF9D1BAEB040B0BD05B4622
:104E6000224629463846FFF76DFF013000F0AA8040
:104E7000099A5A4409929AF80030002B00F0A28057
:104E800000234FF0FF32CDE905230AF1010A049314
:104E900007938DF853301A935446052214F8011BDA
:104EA000514800F0D1FE049AD8B9D00644BF20235F
:104EB0008DF85330110744BF2B238DF853309AF8E7
:104EC00000302A2B15D0544600204FF00A0C079AC8
:104ED000214611F8013B303B092B4ED9B0B1079266
:104EE00014E0A0EB080309FA03F31343A24604936A
:104EF000D2E7039B191D1B680391002BBBBF5B42CC
:104F000042F0020207930793B8BF049223782E2B36
:104F10000CD163782A2B35D1039B02341A1D1B68F0
:104F20000392002BB8BF4FF0FF330593DFF8BCA00E
:104F300003225046217800F087FE40B14023A0EBC9
:104F40000A0003FA00F0049B01340343049314F8AD
:104F5000011B062226488DF8281000F075FE002857
:104F600038D0244B1BBB039B073323F007030833C4
:104F70000393099B3344099367E70C4601200CFB1C
:104F80000232A5E700234FF00A0C194601340593BD
:104F9000204610F8012B303A092A03D9002BC5D03E
:104FA0000591C3E7044601230CFB0121F0E703ABA5
:104FB00000932A463846104B04A9AFF30080421CE8
:104FC0000646D6D1AB895B063FF52CAF09981DB0DC
:104FD000BDE8F08F03AB00932A463846064B04A980
:104FE00000F050FAEBE700BFC0640008C664000898
:104FF000CA64000800000000454D000838B54B1C8D
:10500000144603D14FF0FF35284638BD9389CDB201
:1050100023F020039381636B52688BB1A36B93429F
:1050200008DD23685A1E226003F8015C63680133BF
:105030006360E9E7214600F0C7FD0028F1D0E1E711
:105040002169236851B1994208D213F8011CA94281
:1050500004D1013B013223606260D5E7C4E90F321D
:1050600004F1440363630323A363234603F8465F09
:1050700023600123DCE710B50C46496B69B104F1EC
:105080004403994201D000F007FE0020236C6063C6
:10509000636013B1E36B236010BD23694FF0FF30F1
:1050A000236000236360A38943F02003A381F3E717
:1050B0002DE9F0470C4600210646ADF5227DCDE9ED
:1050C0004411A7490DF10408A091A649A64FDFF8A5
:1050D0009C92CDF81881A19100931378002B00F0D9
:1050E0005C81D95D551C11F0080119D06368002B53
:1050F0000FDD23681A78BA5C120701D42A46ECE760
:10510000459A01330132459262682360013A626038
:10511000ECE721463046A19B98470028E9D0EDE70F
:10512000252B12D09A466368002B40F394802268A6
:105130001378534540F0318163680132013B63606D
:10514000459B226001334593D8E7419143915378C1
:105150002A2B04BF1023951C4FF00A0208BF41936D
:10516000AA461AF8011BA1F13003092B1DD903220D
:105170007E4800F069FD40B101235546A0EB0900CF
:1051800003FA00F0419B1843419015F8013B782B3E
:1051900006D8572B10D8252BC4D057D8002B65D054
:1051A000032347930A23429372E0439B554602FB35
:1051B000031130394391D3E7A3F15802202AEFD8E5
:1051C00001A151F822F000BF7B520008A151000854
:1051D000A1510008D9520008A1510008A1510008AE
:1051E000A1510008A1510008A1510008A1510008D7
:1051F000A1510008EF520008C552000853520008A0
:105200005352000853520008A1510008C952000827
:10521000A1510008A1510008A1510008A1510008A6
:10522000FF520008D152000873520008A151000833
:10523000A1510008FB520008A1510008C552000806
:10524000A1510008A15100087B520008453B022BE8
:10525000A6D805231BE021463046A19B984700288D
:105260003FF465AF4498002840F08D804FF0FF3048
:105270008FE0419A42F020024192419A42F400723A
:10528000419210226F2B34BF032304234292479391
:105290006368002B42DD419B590604D423681A78C9
:1052A000BA5C120741D4479B022B50DC6B46224666
:1052B000304641A900F00CFA01286ED002287FF494
:1052C0001DAFCFE70A22DDE7002342930323DEE789
:1052D000082342930423DAE72946404600F04AFBBC
:1052E000419B054643F0400341930123CFE7419B97
:1052F00043F0400341930023C9E70223C7E74198E5
:10530000C3063FF5FBAE009B459A191D00911B6833
:1053100010F0010F14BF1A801A60EFE621463046E4
:10532000A19B98470028B6D09CE7459A0132459248
:105330006268013A002A626002DD01332360ADE752
:1053400021463046A19B98470028A7D08AE7042B26
:105350000EDC6B462246304641A900F013FAABE75B
:10536000FD4F0008775000080F650008C66400086C
:105370000B4B002B3FF4C2AE6B462246304641A990
:10538000AFF3008098E7A38913F0400F18BF4FF0E8
:10539000FF300DF5227DBDE8F0874498F9E700BFA6
:1053A000000000002DE9F047164699468A680B690F
:1053B00007469342B8BF1346336091F843200C462A
:1053C000DDF820800AB1013333602368990642BFBB
:1053D000336802333360256815F0060506D104F101
:1053E000190AE36832689B1AAB4228DC94F8432020
:1053F000131E226818BF012392062DD44946384651
:1054000004F14302C047013020D02368E56803F06F
:105410000603042B18BF002532684FF00006A3686E
:1054200008BFAD1A226908BF25EAE5759342C4BFDB
:105430009B1AED181A34B5421AD1002008E0012356
:10544000524649463846C047013003D14FF0FF303D
:10545000BDE8F0870135C4E73020E11881F843004A
:105460005A1C94F845102244023382F84310C5E7D1
:105470000123224649463846C0470130E6D001366E
:10548000D9E700002DE9FF470F7E9146782F80462F
:105490000C469A460C9D01F1430207D8622F0AD8A8
:1054A000002F00F0D980582F00F0A48004F14205AD
:1054B00084F842703AE0A7F16303152BF6D801A1F6
:1054C00051F823F01D55000831550008AD5400086F
:1054D000AD540008AD540008AD5400083155000823
:1054E000AD540008AD540008AD540008AD54000898
:1054F0003F5600086155000821560008AD540008C9
:10550000AD54000861560008AD540008615500080C
:10551000AD540008AD540008295600082B681A1D28
:105520001B682A6004F1420584F842300123A4E09C
:1055300020682968060601F104030AD50E682B606D
:10554000002E03DA2D23764284F843300A235E4886
:1055500019E00E6810F0400F2B6018BF36B2EFE76D
:105560002B682068191D2960010601D51E6802E01C
:105570004606FBD51E886F2F0CBF08230A2352480E
:10558000002184F843106568002DA8BF2168A5603C
:10559000A4BF21F0040121600EB9002D4DD01546A5
:1055A000B6FBF3F103FB1167C75D05F8017D3746D4
:1055B000BB420E46F4D9082B0BD12368DE0708D571
:1055C000236961689942DEBF302305F8013C05F18B
:1055D000FF35521B22614B4621464046CDF800A0C4
:1055E00003AAFFF7DFFE01304CD14FF0FF3004B0CB
:1055F000BDE8F087344881F845702968236851F880
:10560000046B29601D0614D5DF0744BF43F0200357
:1056100023601EB9236823F0200323601023AFE723
:10562000236843F0200323607823284884F845301A
:10563000E3E7590648BFB6B2E6E71546BBE72B6875
:105640002668181D6169286035061B6801D5196038
:1056500002E07006FBD51980002315462361BAE7E6
:105660002B6800211A1D2A601D686268284600F018
:10567000EBFA08B1401B606063682361002384F883
:105680004330A8E72A46494640462369D0470130BF
:10569000ABD023689B0713D4E068039B9842B8BF44
:1056A0001846A4E70123324649464046D047013018
:1056B0009BD00135E36803995B1AAB42F2DCEBE760
:1056C000002504F11906F5E7D1640008E26400083A
:1056D0002DE9F84315468A6880460C4632B98A6936
:1056E000002A0CBF01224FF0FF328A600027226897
:1056F000DFF88C90D1065FBF1A68111D196016681B
:10570000A06988B1012807D12B681A7863699B5C6E
:1057100053B9002F31D022E0022820D12B681B780A
:1057200013F809301B071AD423680137DA065EBF65
:105730002B681B7806F8013B2A686B6801322A60E7
:10574000A268013B013A6B60A26042B1002BD7DC3A
:1057500029464046D4F8803198470028D0D02368A5
:1057600013F0100305D1E2680132E260A26902B1D0
:105770003370002023693B442361BDE8F88300BFF8
:105780000F6500082DE9F04F0C469846754B87B021
:105790008246164693E8070003AB83E80700724B86
:1057A000A169724A2746032918BF1A46A3680192C5
:1057B0005A1EB2F5AE7F81BF6FF4AE7503EB0509DB
:1057C00040F25D13A36057F81C3B98BF4FF00009EF
:1057D0003D464FF0000B43F450632360316803AB48
:1057E0000222097853F82B0000F02EFA28B3BBF1FF
:1057F000010F59D162682AB908232268636042F414
:1058000000722260226822F4A0622260A268511E07
:10581000A16092B13268511C3160127805F8012BF9
:105820007268013A002A726007DC31465046D4F8AB
:1058300080219047002840F085800BF1010BBBF1DF
:10584000030FCBD163680BB90A23636063684849CF
:105850006069C91A00F08EF84FF0000BA368226847
:10586000002B3DD03168606991F800C010F80C0041
:10587000002835D0BCF1300F24D1100522D50BF112
:10588000010BB9F1000F03D0013309F1FF39A36017
:105890007368013B002B73601BDD33680133336099
:1058A000A368013BA360D9E7BBF1020FAED1226828
:1058B00002F4C061B1F5007FBFD1102342F48072C1
:1058C0006360A2E722F4106222600B7805F8013BC6
:1058D000DEE731465046D4F8803198470028DFD0C3
:1058E0002368DB050DD5BD4209D915F8011C3246E8
:1058F0005046D4F87C3105F1FF3998474D46BD42FA
:105900002DD0226812F0100213D12A703946636834
:105910005046019EB0472168D8F8003011F0200FA2
:1059200013D01A1DC8F800201B681860E368013303
:10593000E3600020ED1BAB4425695D44256107B0A1
:10594000BDE8F08F4FF0000BCAE71A1DC8F8002021
:105950001B6811F0010F14BF18801860E6E70120E2
:10596000EDE700BF94610008C55B0008DD5A000840
:105970000C65000870B50B7804465E2B13BF00223F
:1059800001224B78481C08BF881C04F1FF05611EEA
:1059900001F8012FA942FBD10BB9013870BD82F08B
:1059A00001020546E254284610F8011B2D2906D0B5
:1059B0005D29F3D009B92846F0E70B46F1E76E7888
:1059C0005D2EFAD0B342F8DC1946023501318E4221
:1059D0006254FBDCF11A0139B342A8BF0021581C04
:1059E0004318E0E7012B2DE9F047804601D0242B36
:1059F00006D900F021F9162303600020BDE8F087E6
:105A00000D46354F284615F8014BE65D16F00806A1
:105A1000F8D12D2C2FD101262C78851C002B57D0A6
:105A2000102B09D1302C07D1287800F0DF0058283E
:105A300049D110236C780235002706F1004E0EF193
:105A4000FF3EBEFBF3F9384603FB19EAA4F1300C24
:105A5000BCF1090F14D86446A34222DD002F1DDBE0
:105A600081451BD301D1A24518DB012700FB034070
:105A700015F8014BEAE72B2C04BF2C78851CCDE7E9
:105A8000A4F1410CBCF1190F01D8373CE4E7A4F1B3
:105A9000610CBCF1190F04D8573CDDE74FF0FF371C
:105AA000E6E7002F07DA22237046C8F80030002A04
:105AB000A4D0691E05E006B14042002A9ED0002F06
:105AC000F7D111609AE73024002BB5D10823B3E752
:105AD000302CA9D00A23AFE70F650008FFF782BF7B
