:020000040800F2
:1000000000500020ED3D000815020008170200080E
:10001000190200081B0200081D0200080000000071
:10002000000000000000000000000000F13900089E
:100030001F02000800000000913A0008D53A0008AD
:10004000353E0008353E0008353E0008353E0008C4
:10005000353E0008353E000821020008353E000804
:10006000353E0008353E0008353E0008353E0008A4
:10007000353E0008353E0008353E0008353E000894
:10008000353E0008353E0008353E0008353E000884
:10009000353E0008353E0008353E0008353E000874
:1000A000353E00082D020008353E0008353E0008A8
:1000B000353E0008353E0008353E0008353E000854
:1000C000353E0008353E0008353E00083D02000878
:1000D000353E00084D020008353E0008353E000858
:1000E000353E0008353E0008353E0008000000009F
:1000F0000000000000000000000000000000000000
:0C01000000000000000000005FF808F1A3
:1001100010B5054C237833B9044B13B10448AFF341
:1001200000800123237010BD740000200000000037
:10013000A047000808B5034B1BB103490348AFF3C0
:10014000008008BD0000000078000020A0470008E3
:10015000034613F8012B002AFBD1181A0138704707
:1001600008B50268034B9A4200D008BD00F008FAB7
:10017000FBE700BF002C014072B6FEE700B591B06E
:100180002822002106A803F089FE00230193029390
:10019000039304930593012206924FF4803307934F
:1001A0000A9202220D920E934FF4E0130F9306A8C9
:1001B00000F00EFA80B90F2301930221029100236F
:1001C00003934FF480620492059301A800F040FC71
:1001D00020B911B05DF804FBFFF7CEFFFFF7CCFFAD
:1001E00008B500F0BBF9FFF7C9FF00F019FF00F0F8
:1001F00065FF01F0C7FA01221021054800F034FE26
:1002000003F0CCF901F0A2FA03F0EAF9FEE700BF2F
:1002100000080140FEE7FEE7FEE7FEE7FEE7704765
:1002200008B5012000F026FE08BD000008B5024810
:1002300000F06EF808BD00BF3801002008B5024884
:1002400001F01EFE08BD00BFE000002008B5024816
:1002500001F07AF908BD00BF9400002000B583B01A
:100260000D4B9A6942F001029A619A6902F001020B
:100270000092009ADA6942F08052DA61DB6903F099
:1002800080530193019B00220F216FF0010000F0C9
:100290007FFE03B05DF804FB0010024070470000D1
:1002A00090F83D30DBB2012B27D1022380F83D309E
:1002B0000268D36843F00103D3600368114A934294
:1002C00010D0B3F1804F0DD0A2F59432934209D0F3
:1002D00002F58062934205D01A6842F001021A606A
:1002E000002070479A6802F00702062A07D01A68B1
:1002F00042F001021A600020704701207047002080
:10030000704700BF002C014070477047704770472E
:1003100010B5044603681A6912F0020F11D0DA68AA
:1003200012F0020F0DD06FF002021A610123037761
:1003300003689B6913F0030F70D0FFF7E6FF0023FB
:10034000237723681A6912F0040F12D0DA6812F0CA
:10035000040F0ED06FF004021A6102232377236882
:100360009B6913F4407F5FD02046FFF7CEFF002348
:10037000237723681A6912F0080F12D0DA6812F096
:10038000080F0ED06FF008021A6104232377236848
:10039000DB6913F0030F4ED02046FFF7B6FF0023B2
:1003A000237723681A6912F0100F12D0DA6812F05E
:1003B000100F0ED06FF010021A6108232377236804
:1003C000DB6913F4407F3DD02046FFF79EFF0023FA
:1003D000237723681A6912F0010F03D0DA6812F04C
:1003E000010F36D123681A6912F0800F03D0DA6842
:1003F00012F0800F34D123681A6912F0400F03D035
:10040000DA6812F0400F32D123681A6912F0200F17
:1004100003D0DA6812F0200F30D110BDFFF774FF5F
:100420002046FFF773FF8AE72046FFF76DFF20465F
:10043000FFF76CFF9BE72046FFF766FF2046FFF7BC
:1004400065FFACE72046FFF75FFF2046FFF75EFF42
:10045000BDE76FF001021A612046FFF781FEC1E798
:100460006FF080021A61204600F077F8C3E76FF062
:1004700040021A612046FFF74AFFC5E76FF02002ED
:100480001A61204600F068F8C7E7000003681B4ABD
:1004900090420AD0B0F1804F07D0A2F5943290423A
:1004A00003D002F58062904203D123F070034A68C2
:1004B0001343124A90420AD0B0F1804F07D0A2F500
:1004C0009432904203D002F58062904203D123F42B
:1004D0004073CA68134323F080034A6913430360DF
:1004E0008B68C3620B688362044B984202D001237D
:1004F000436170470B690363F9E700BF002C0140BB
:1005000040B310B5044690F83D30F3B1022384F8AF
:100510003D30214651F8040BFFF7B8FF012384F862
:10052000463084F83E3084F83F3084F8403084F818
:10053000413084F8423084F8433084F8443084F801
:10054000453084F83D30002010BD80F83C30FFF786
:10055000A5FEDBE7012070477047704708B5074AE2
:10056000136843F010031360032000F0FFFC0F201A
:1005700001F06CF9FFF772FE002008BD0020024078
:10058000034A1168034B1B780B441360704700BF8C
:100590009000002000000020014B1868704700BF49
:1005A0009000002082B0084B1B68084AA2FB03237E
:1005B0005B0A00FB03F3019300BF019B5A1E0192EB
:1005C000002BF9D102B0704708000020D34D621013
:1005D000002800F0F18170B582B00446036813F082
:1005E000010F2CD0994B5B6803F00C03042B1DD03A
:1005F000964B5B6803F00C03082B12D06368B3F5CD
:10060000803F41D0002B55D103F1804303F50433E3
:100610001A6822F480321A601A6822F480221A6062
:1006200037E08A4B5B6813F4803FE7D0874B1B6849
:1006300013F4003F03D06368002B00F0BF812368F0
:1006400013F0020F75D0814B5B6813F00C0F5FD075
:100650007E4B5B6803F00C03082B54D02369002BFE
:1006600000F08A807A4B01221A60FFF795FF054659
:10067000764B1B6813F0020F75D1FFF78DFF401BFF
:100680000228F5D903209EE1704A136843F48033B1
:100690001360636843B3FFF77FFF05466B4B1B682E
:1006A00013F4003FCBD1FFF777FF401B6428F5D947
:1006B000032088E1B3F5A02F09D0644B1A6822F417
:1006C00080321A601A6822F480221A60E1E703F18E
:1006D0008043A3F53C331A6842F480221A601A68FA
:1006E00042F480321A60D4E7FFF756FF0546574BB5
:1006F0001B6813F4003FA2D0FFF74EFF401B642895
:10070000F5D903205FE1514B5B6813F4803FA5D11D
:100710004E4B1B6813F0020F03D02369012B40F0EE
:100720004F814A4A136823F0F803616943EAC10321
:100730001360236813F0080F33D0A369002B5CD03B
:10074000434B0122C3F88024FFF726FF05463F4BA9
:100750005B6A13F0020F21D1FFF71EFF401B022836
:10076000F5D903202FE1394A136823F0F8036169B2
:1007700043EAC1031360DCE7354B00221A60FFF740
:100780000BFF0546314B1B6813F0020FD1D0FFF76A
:1007900003FF401B0228F5D9032014E10120FFF7D5
:1007A00001FF236813F0040F00F09680274BDB69EC
:1007B00013F0805F34D1254BDA6942F08052DA6160
:1007C000DB6903F080530193019B0125214B1B68DA
:1007D00013F4807F26D0E368012B3DD0002B53D14A
:1007E00003F1804303F504331A6A22F001021A620E
:1007F0001A6A22F004021A6233E0154B0022C3F891
:100800008024FFF7C9FE0546104B5B6A13F0020F08
:10081000C7D0FFF7C1FE401B0228F5D90320D2E064
:100820000025D3E70B4A136843F480731360FFF786
:10083000B3FE0646074B1B6813F4807FCBD1FFF74E
:10084000ABFE801B6428F5D90320BCE000100240F9
:1008500000004242007000405F4A136A43F0010307
:100860001362E36833B3FFF797FE06465A4B1B6AE1
:1008700013F0020F2FD1FFF78FFE801B41F2883358
:100880009842F3D903209EE0052B09D0524B1A6AF7
:1008900022F001021A621A6A22F004021A62E0E7E8
:1008A0004D4B1A6A42F004021A621A6A42F00102BF
:1008B0001A62D6E7FFF770FE0646474B1B6A13F035
:1008C000020F08D0FFF768FE801B41F28833984280
:1008D000F3D9032077E0E5B9E369002B72D03E4AF3
:1008E000526802F00C02082A56D0022B17D03B4B5C
:1008F00000221A66FFF750FE0446374B1B6813F0C0
:10090000007F47D0FFF748FE001B0228F5D90320DF
:1009100059E0314AD36923F08053D361DCE72F4B90
:1009200000221A66FFF738FE05462B4B1B6813F0B2
:10093000007F06D0FFF730FE401B0228F5D90320C8
:1009400041E0236AB3F5803F1AD023494B6823F472
:100950007413226A606A024313434B601F4B0122E7
:100960001A66FFF719FE04461B4B1B6813F0007F45
:100970000ED1FFF711FE001B0228F5D9032022E05B
:10098000154A536823F40033A1680B435360DCE736
:10099000002018E0002016E0012B16D00E4B5B68FB
:1009A00003F48031226A914211D103F47013626A18
:1009B00093420ED1002006E001207047012002E0A2
:1009C000012000E0002002B070BD0120FBE7012003
:1009D000F9E70120F7E700BF0010024000004242A3
:1009E00086B0174B0FCB0DF1180C0CE90F0040F23D
:1009F0000123ADF80430134B5B6803F00C02082AA6
:100A000002D0114806B07047C3F3834218326A44DB
:100A100012F8100C13F4803F0DD00A4B5B68C3F33F
:100A2000404318336B4413F8143C074A02FB00F0B0
:100A3000B0FBF3F0E6E7054B03FB00F0E2E700BF95
:100A4000B84700080010024000127A0000093D007B
:100A5000002800F0A08070B50D460446524B1B687C
:100A600003F007038B420BD24F4A136823F00703AE
:100A70000B431360136803F007038B4240F08D8033
:100A8000236813F0020F17D013F0040F04D0474A65
:100A9000536843F4E0635360236813F0080F04D0F5
:100AA000424A536843F460535360404A536823F00A
:100AB000F003A1680B435360236813F0010F31D09A
:100AC0006368012B20D0022B25D0384A126812F01F
:100AD000020F64D035494A6822F0030213434B6089
:100AE000FFF75AFD0646314B5B6803F00C03626862
:100AF000B3EB820F16D0FFF74FFD801B41F2883316
:100B00009842F0D9032045E0284A126812F4003FC9
:100B1000E0D101203EE0254A126812F0007FD9D1D1
:100B2000012037E0204B1B6803F00703AB420AD9D2
:100B30001D4A136823F007032B431360136803F067
:100B40000703AB422DD1236813F0040F06D0174AD8
:100B5000536823F4E063E1680B435360236813F0A8
:100B6000080F07D0114A536823F46053216943EA00
:100B7000C1035360FFF734FF0C4B5B68C3F30313EF
:100B80000B4AD35CD8400B4B18600B4B186800F035
:100B90005DFE002070BD012070470120FAE70120B2
:100BA000F8E70120F6E700BF0020024000100240F5
:100BB000CC4700080800002004000020014B186802
:100BC000704700BF0800002008B5FFF7F7FF044B8F
:100BD0005B68C3F30223034AD35CD84008BD00BF5F
:100BE00000100240DC47000808B5FFF7E7FF044BA0
:100BF0005B68C3F3C223034AD35CD84008BD00BF7F
:100C000000100240DC4700080F2303600B4B5A68BA
:100C100002F0030242605A6802F0F00282605A68F1
:100C200002F4E062C2605B68DB0803F4E063036126
:100C3000034B1B6803F007030B6070470010024072
:100C40000020024070B582B00024A446A6E0804D8A
:100C5000AA4210D007D97F4DAA420CD005F58035A5
:100C6000AA4208D013E0A5F58015AA4203D005F5E5
:100C70007025AA4207D18A68002A58D0012A51D08B
:100C80004361082403E0A5F58015AA42F3D0BEF124
:100C9000FF0F4ED80646BEF1FF0F4CD84FEA8C022C
:100CA00033680F25954023EA050304FA02F2134343
:100CB00033604B6813F0805F6ED0674B9A6942F0E7
:100CC00001029A619B6903F001030193019B4FEAC2
:100CD0009C02951C614B53F825600CF003039D00AA
:100CE0000F23AB4026EA03065D4B984229D003F55B
:100CF0008063984200F08E8003F58063984200F094
:100D00008B8003F58063984219D004231AE0CC68E5
:100D1000BDE7CC680434BAE7CC680834B7E7CC68E0
:100D20000C34B4E703610824B1E70024AFE70424DE
:100D3000ADE7061DAFE7ACF108029200B0E7032370
:100D400000E00023AB4033430232444D45F82230EB
:100D50004B6813F4803F61D0424A136843EA0E03A4
:100D600013604B6813F4003F5ED03E4A536843EA79
:100D70000E0353604B6813F4801F5BD0394A9368AD
:100D800043EA0E0393604B6813F4001F58D0354AB2
:100D9000D36843EA0E03D3600CF1010C0A6832FAFF
:100DA0000CF353D0012303FA0CF302EA030E33EAE7
:100DB0000202F1D14A68122A3FF649AF122A3FF6E1
:100DC00066AF01A555F822F0770C00080F0D00085A
:100DD000190D00082B0D00088F0C00088F0C00085F
:100DE0008F0C00088F0C00088F0C00088F0C000877
:100DF0008F0C00088F0C00088F0C00088F0C000867
:100E00008F0C00088F0C00088F0C0008130D0008D1
:100E10001F0D0008012395E7022393E7114A136889
:100E200023EA0E0313609CE70E4A536823EA0E037D
:100E300053609FE70B4A936823EA0E039360A2E78F
:100E4000084AD36823EA0E03D360A5E702B070BD59
:100E5000000022100000311000100240000001408C
:100E600000080140000401400AB101617047090413
:100E70000161704708B5054B5B69034200D108BDAD
:100E8000024B586102F070FFF9E700BF0004014017
:100E900090F82130022B06D004238363002380F8CE
:100EA0002030012070470268136823F00E0313609E
:100EB0000268136823F001031360036CC16B012205
:100EC00002FA03F34B6080F82120002380F82030E1
:100ED0001846704708B590F82130022B03D0042340
:100EE0008363012008BD0268136823F00E031360BA
:100EF0000268136823F0010313600368194A9342E0
:100F000014D0143293421FD0143293421ED01432A4
:100F100093421ED0143293421ED01432934202D018
:100F20004FF0807203E04FF4801200E001220E4B7C
:100F30005A60012380F82130002380F82030436B71
:100F40006BB198470020CDE71022F0E74FF4807294
:100F5000EDE74FF48052EAE74FF48032E7E70020F4
:100F6000C0E700BF0800024000000240074AD36803
:100F700023F4E0631B041B0C000200F4E060034355
:100F800043F0BF6343F40033D360704700ED00E0EB
:100F900000B5194BDB68C3F30223C3F1070CBCF1A6
:100FA000040F28BF4FF0040C03F1040EBEF1060F2E
:100FB00018D9033B4FF0FF3E0EFA0CFC21EA0C015E
:100FC00099400EFA03F322EA0303194300280BDBCE
:100FD0000901C9B200F1604000F5614080F80013DA
:100FE0005DF804FB0023E5E700F00F000901C9B23A
:100FF000024B1954F4E700BF00ED00E014ED00E0EF
:10100000002807DB00F01F02400901239340024A39
:1010100042F82030704700BF00E100E07047000058
:1010200070B588B0002404940594069407941F4B6F
:101030009A6942F020029A619A6902F020020192B4
:10104000019A9A6942F004029A619A6902F00402D4
:101050000292029A9A6942F008029A619B6903F02F
:1010600008030393039B124E224610213046FFF7DC
:10107000FBFE102304930125059506940223079394
:1010800004A93046FFF7DEFD04950A4B059306944C
:1010900004A90948FFF7D6FD224621460620FFF79E
:1010A00077FF0620FFF7ACFF08B070BD00100240CC
:1010B0000008014000001110000C014008B50A486A
:1010C0000A4B03604FF4E133436000238360C36045
:1010D00003610C2242618361C36100F017F900B91A
:1010E00008BDFFF749F8FBE79400002000380140F5
:1010F00030B587B0002302930393049305930268ED
:101100001B4B9A4201D007B030BD03F558439A6992
:1011100042F480429A619A6902F480420092009AF5
:101120009A6942F004029A619B6903F004030193F7
:10113000019B4FF40073029302230393032305934F
:101140000C4D02A92846FFF77DFD4FF48063029302
:1011500000240394049402A92846FFF773FD224655
:1011600005212520FFF714FF2520FFF749FFCAE7D7
:1011700000380140000801400268D36823F49073EE
:10118000D3600268536923F001035361036B012BA1
:1011900005D0202380F83E300023036370470268A7
:1011A000D36823F01003D360F3E790F83D30DBB24F
:1011B000212B01D0022070478368B3F5805F17D0E0
:1011C000036A5A1C02621A7803685A60C38C9BB285
:1011D000013B9BB2C3844BB90268D36823F0800300
:1011E000D3600268D36843F04003D36000207047A7
:1011F0000369002BE4D1036A1B880268C3F3080368
:101200005360036A02330362E0E7000010B504464E
:101210000268136923F44053C1680B431361836868
:101220000269134342691A430168CB6823F4B0533F
:1012300023F00C031343CB600268536923F440731B
:1012400081690B4353610268134B9A4220D0FFF728
:10125000BBFC024602EB820202EB820263689B0047
:10126000B2FBF3F20D48A0FB02314909642303FBF2
:1012700011231B013233A0FB03235B0903F0F002AF
:1012800002EB011203F00F03216813448B6010BDC1
:10129000FFF7AAFC0246DDE7003801401F85EB514D
:1012A0002DE9F84305460F4616469946DDF820809D
:1012B0002C68246837EA04030CBF4FF0010C4FF090
:1012C000000CB4451FD1B8F1FF3FF1D0B8F1000FC9
:1012D00005D0FFF761F9A0EB09004045E8D92A687D
:1012E000D36823F4D073D3602A68536923F00103D1
:1012F0005361202385F83D3085F83E30002385F882
:101300003C30032000E00020BDE8F88358B310B55E
:10131000044690F83D300BB3242384F83D30226816
:10132000D36823F40053D3602046FFF76FFF226891
:10133000136923F4904313612268536923F02A034D
:1013400053612268D36843F40053D36000202064C3
:10135000202384F83D3084F83E3010BD80F83C30C6
:10136000FFF7C6FED8E7012070472DE9F04182B0B3
:101370001E4690F83D30DBB2202B54D104460D467A
:101380009046002953D0002A53D090F83C30012BCE
:1013900051D0012380F83C3000230364212380F8DE
:1013A0003D30FFF7F9F80746A4F82480A4F826801A
:1013B000A368B3F5805F05D04FF00008002384F8E0
:1013C0003C3012E0236913B14FF00008F6E7A8465D
:1013D0000025F3E738F8023B2268C3F308035360A3
:1013E000E28C92B2013A92B2E284E38C9BB273B186
:1013F00000963B46002280212046FFF751FFE0B9CE
:10140000002DE7D015F8012B23685A60E8E7009615
:101410003B46002240212046FFF742FF78B92023B7
:1014200084F83D3000E0022002B0BDE8F0810120E8
:10143000FAE70120F8E70220F6E70320F4E70320AB
:10144000F2E7704708B50168CA6822F04002CA6036
:10145000202280F83D20FFF7F4FF002008BD7047F0
:10146000704708B5406A0023C385C384FFF7F8FFBF
:1014700008BD704790F83E30DBB2222B60D1836804
:10148000B3F5805F46D0826AB3F5805F04D0002B4D
:101490004DD10369002B4AD103685B681370836ADE
:1014A00001338362C38D9BB2013B9BB2C385002B8A
:1014B00048D100B583B00268D36823F02003D3601D
:1014C0000268D36823F48073D3600268536923F001
:1014D00001035361202380F83E30036B012B2CD194
:1014E000002303630268D36823F01003D36003680A
:1014F0001A6812F0100F06D0002201921A680192A9
:101500005B680193019B818DFFF7B3FF002003B05F
:101510005DF804FB0269002AB5D1826A03685B6842
:10152000C3F308031380836A02338362BAE7036854
:101530005B6803F07F031370B1E7FFF790FFE5E707
:10154000022070470020704730B583B0044602681F
:101550001368D068516913F00F0505D113F0200FFF
:1015600002D010F0200F19D12DB111F0010119D1C5
:1015700010F4907F16D1216B012975D013F0800FE4
:1015800003D010F0800F40F0D78013F0400F03D04D
:1015900010F0400F40F0D48003B030BD2046FFF77C
:1015A00069FFF9E713F0010F06D010F4807F03D034
:1015B000226C42F00102226413F0040F04D019B12E
:1015C000226C42F00202226413F0020F04D019B11F
:1015D000226C42F00402226413F0080F07D010F0CE
:1015E000200F00D119B1226C42F008022264226C53
:1015F000002AD1D013F0200F02D010F0200F21D1FB
:1016000023685B6903F04003226C12F0080F00D1DD
:1016100023B32046FFF7B0FD23685A6912F0400F4C
:1016200018D05A6922F040025A61A36B73B1464A3E
:101630005A63A06BFFF74EFC0028ADD0A06B436B44
:101640009847A9E72046FFF715FFD9E72046FFF79F
:1016500007FFA1E72046FFF703FF9DE72046FFF7BE
:10166000FFFE0023236497E713F0100F86D010F0DD
:10167000100F83D0002301931368019353680193E3
:10168000019B536913F0400F32D0A16B0B685B686C
:101690009BB2002B80D0A08D98427FF67DAFE38572
:1016A0008B69202B08D1A18DE38D9BB2C91A89B219
:1016B0002046FFF7DEFE6FE7D36823F48073D36024
:1016C0002268536923F0010353612268536923F0B0
:1016D00040035361202384F83E30002323632268B3
:1016E000D36823F01003D360A06BFFF7D1FBDAE7D8
:1016F000A18DE38D9BB2C91A89B2E38D9BB2002BF9
:101700003FF44AAF00293FF447AFD36823F4907306
:10171000D3602268536923F001035361202384F8C6
:101720003E30002323632268D36823F01003D36084
:101730002046FFF79EFE2FE72046FFF736FD2BE7FA
:101740002046FFF77FFE27E76314000808B5074A25
:101750000021074801F06AFF064B1860064A002185
:10176000064801F063FF064B186008BD00480008FA
:10177000213D0008D800002024480008893D0008C9
:10178000DC00002008B50E480E4B03604FF4827356
:10179000436000238360C360036143614FF40072C0
:1017A00082612822C2610362436283620A23C362A8
:1017B00000F012F900B908BDFEF7DEFCFBE700BF40
:1017C000E00000200030014030B587B000230293D4
:1017D00003930493059302681A4B9A4201D007B011
:1017E00030BD03F560439A6942F480529A619A6968
:1017F00002F480520092009A9A6942F004029A61BF
:101800009B6903F004030193019BA023029302232D
:101810000393032305930C4D02A92846FFF712FA00
:101820004023029300240394049402A92846FFF75E
:1018300009FA224605212320FFF7AAFB2320FFF700
:10184000DFFBCCE7003001400008014030B589B033
:1018500004461E4B9A6942F400629A619B6903F444
:1018600000630193019B02A903A8FFF7CDF9FFF7DD
:10187000BBF903461648A0FB03239B0C013B15480C
:10188000154A026040F2E732C26043600023036100
:1018900083608361FEF734FE054610B1284609B027
:1018A00030BD0C48FEF7FCFC05460028F6D1192097
:1018B000FFF7A6FB0F2C01D90125EFE700222146F7
:1018C0001920FFF765FB054B1C60E7E7001002409D
:1018D00083DE1B4338010020002C0140040000205F
:1018E0002DE9F04782B00546884617461E46FEF7AA
:1018F00053FE0A9B1B1A03EB0609FEF74DFE8246B8
:101900002B4B1B68C3F3CB3309FB03F301932B6809
:101910009C6838EA04030CBF4FF0010C4FF0000C38
:10192000BC4540D0B6F1FF3FF1D0FEF735FEA0EB4D
:101930000A0048450AD2B9F1000F07D0019A02B156
:101940004A46019B013B01939146E0E72A685368B0
:1019500023F0E00353606B68B3F5827F0BD0AB6A72
:10196000B3F5005F14D0012385F85130002385F8CA
:101970005030032018E0AB68B3F5004F02D0B3F548
:10198000806FECD12A68136823F040031360E6E708
:101990002A68136823F4005313602A68136843F419
:1019A00000531360DFE7002002B0BDE8F08700BFFE
:1019B0000800002010B582B004460B4600920022B9
:1019C0008021FFF78DFF08B902B010BD636D43F0B1
:1019D000200363650320F7E7002856D010B50446BE
:1019E000436A33B94368B3F5827F05D00023C361EE
:1019F00002E00023036143610023A36294F85130A5
:101A0000002B3CD0022384F851302268136823F065
:101A100040031360636803F48273A26802F4044213
:101A20001343E26802F400621343226902F00202E7
:101A30001343626902F001021343A26902F40072C7
:101A40001343E26902F038021343226A02F0800273
:101A50001343A26A02F40052216813430B60638BA4
:101A6000226803F0040353602268D36923F40063FF
:101A7000D36100206065012384F8513010BD84F8E3
:101A800050302046FFF7A0FEBCE7012070472DE94B
:101A9000F04383B01D4690F85030012B00F0D18008
:101AA000044688469146012380F85030FEF774FDC5
:101AB000074694F85160F6B2012E40F0AF80B8F1BD
:101AC000000F00F0AC80B9F1000F00F0A8800323F4
:101AD00084F8513000236365C4F83080A4F8349052
:101AE000A4F83690A363A387E38763642364A368A1
:101AF000B3F5004F1ED023681A6812F0400F03D1CF
:101B00001A6842F040021A60E368B3F5006F1CD017
:101B1000636813B1B9F1010F52D1226B23681278B7
:101B20001A73236B01332363E38E9BB2013B9BB299
:101B3000E38645E02268136823F0400313602268BF
:101B4000136843F480431360D5E7636813B1B9F1B8
:101B5000010F16D1226B23681288DA60236B0233DF
:101B60002363E38E9BB2013B9BB2E38609E0FEF761
:101B700013FDC01BA84202D3B5F1FF3F59D1002D80
:101B800059D0E38E9BB2002B33D023689A6812F0B1
:101B9000020FECD0226B1288DA60236B02332363CE
:101BA000E38E9BB2013B9BB2E386EAE7FEF7F4FCCF
:101BB000C01BA84202D3B5F1FF3F3ED1002D3ED05D
:101BC000E38E9BB2ABB123689A6812F0020FEDD09E
:101BD000226B12781A73236B01332363B4F836C077
:101BE0001FFA8CFC0CF1FF3C1FFA8CFCA4F836C0E9
:101BF000E6E73A4629462046FFF7DCFE08B12023F7
:101C00006365A36833B901932368DA6801929B681E
:101C10000193019B636D13B9002600E002260123A6
:101C200084F85130002384F85030304603B0BDE8CA
:101C3000F0830326F3E70326F1E70326EFE7032605
:101C4000EDE70226F1E72DE9F04383B01F460A9D38
:101C500090F85030012B00F01081044688469146E0
:101C6000012380F85030FEF797FC064694F8513077
:101C7000DBB26268012B0AD0B2F5827F40F0E380CC
:101C8000A268002A40F0E980042B40F0E880B8F117
:101C9000000F00F0E680B9F1000F00F0E480002FA3
:101CA00000F0E38094F85130DBB2042B02D005231E
:101CB00084F8513000236365C4F83890E787A7871C
:101CC000C4F83080E786A7862364636423681A68B3
:101CD00012F0400F03D11A6842F040021A60E36824
:101CE000B3F5006F11D063680BB1012F0BD1226BDC
:101CF000236812781A73236B01332363E38E9BB23C
:101D0000013B9BB2E38601276BE063680BB1012FB7
:101D10000BD1226B23681288DA60236B02332363B2
:101D2000E38E9BB2013B9BB2E38601271CE0236854
:101D30009A6812F0010F0ED0E28F92B25AB1DA68AF
:101D4000A36B1A80A36B0233A363E38F9BB2013BA7
:101D50009BB2E3870127FEF71FFC801BA84203D339
:101D6000B5F1FF3F40F08380E38E9BB21BB9E38F58
:101D70009BB2002B53D023689A6812F0020FD6D082
:101D8000E28E92B2002AD2D0002FD0D0226B1288DD
:101D9000DA60236B02332363E38E9BB2013B9BB279
:101DA000E3860027C3E723689A6812F0010F0ED07C
:101DB000E28F92B25AB1DA68A36B1A70A36B013347
:101DC000A363E38F9BB2013B9BB2E3870127FEF73E
:101DD000E3FB831BAB4202D3B5F1FF3F49D1002D9A
:101DE00049D0E38E9BB213B9E38F9BB2BBB123689A
:101DF0009A6812F0020FD6D0E28E92B2002AD2D0A8
:101E0000002FD0D0226B12781A73236B0133236317
:101E1000E38E9BB2013B9BB2E3860027C3E73246C9
:101E200029462046FFF7C6FD48B9A36863B9019368
:101E30002368DA6801929B680193019B04E02023E8
:101E40006365012000E00220012384F85130002363
:101E500084F8503003B0BDE8F0830220F4E702209C
:101E6000F2E70120F0E70120EEE70120ECE7032094
:101E7000EAE70320E8E70320E6E70220EAE7704705
:101E800030B585B00446026851689368C3F380108A
:101E900013F0400F05D113F0010F02D011F0400FE5
:101EA0005AD113F0020F02D011F0800F58D1C3F3B2
:101EB000401513F0200F01D1002854D011F0200F4D
:101EC00051D078B194F85130DBB2032B4DD0636D13
:101ED00043F00403636500230193D368019393687F
:101EE0000193019B65B1636D43F0010363650023BA
:101EF000039393680393136823F040031360039BD9
:101F0000636D002B2FD02268536823F0E0035360E9
:101F1000012384F8513011F0030F2ED0226853684A
:101F200023F003035360E36C4BB1164A5A63E06C31
:101F3000FEF7D0FF18B1636D43F040036365A36CF7
:101F40008BB1104A5A63A06CFEF7C4FF58B1636DA1
:101F500043F04003636506E0236C2046984702E0A7
:101F6000636C2046984705B030BD00230293D368C8
:101F7000029393680293029BF5E72046FFF77FFFE9
:101F8000F1E700BF891F000808B5406A0023C38736
:101F9000C386FFF774FF08BD00F1080343604FF0EC
:101FA000FF328260C3600361002303607047002337
:101FB0000361704743684B609A688A60516099601A
:101FC0000861036801330360704730B40D68B5F1F0
:101FD000FF3F11D000F108031C465B681A68AA4253
:101FE000FAD963684B6099608C606160086103682E
:101FF0000133036030BC70470469F2E7036941684C
:1020000082688A60416851605A68824206D0002224
:1020100002611A68013A1A601868704782685A604B
:10202000F5E710B5044601F0F5FCA26BE36B9A42AC
:1020300004D0002401F010FD204610BD0124F9E772
:1020400010B5044601F0E6FCA36B23B9012401F0AE
:1020500003FD204610BD0024F9E770B5044615467F
:10206000866B026C5AB903681BB100200136A66367
:1020700070BD406800F0CAFF00236360F6E76DB9E9
:10208000806801F0FDFE226CA3681344A3606268BF
:10209000934219D32368A3602846E7E7C06801F09C
:1020A000EFFE226C5142E3689B1AE3602268934280
:1020B00002D263680B44E360022D01D00020D5E713
:1020C00026B1013E0020D1E72846CFE70020CDE72A
:1020D00008B50346026C62B10846D9681144D9605C
:1020E000D3F804C0614501D31968D960D96801F0FB
:1020F000C7FE08BD38B5054601F08CFC95F8454093
:1021000064B201E0013C64B2002C0ADD6B6A43B1A9
:1021100005F1240000F0D0FE0028F3D000F060FFAD
:10212000F0E7FF2385F8453001F096FC01F072FCE2
:1021300095F8444064B201E0013C64B2002C0ADD31
:102140002B6943B105F1100000F0B6FE0028F3D072
:1021500000F046FFF0E7FF2385F8443001F07CFCF7
:1021600038BD38B5E0B10D46044601F053FC236894
:10217000E26B216C01FB023060600020A063A36071
:10218000013A02FB0133E360FF2384F8443084F812
:102190004530FDB9236963B901F05EFC012038BD0B
:1021A0004FF0500383F31188BFF36F8FBFF34F8F4E
:1021B000FEE704F1100000F07FFE0028ECD04FF0A5
:1021C000E0234FF08052C3F8042DBFF34F8FBFF3CD
:1021D0006F8FE1E704F11000FFF7DEFE04F1240049
:1021E000FFF7DAFED8E738B51D46049C0B4649B91F
:1021F0002460E063236401212046FFF7B2FF84F8E6
:102200004C5038BD2260F4E740B94FF0500383F3DF
:102210001188BFF36F8FBFF34F8FFEE710B584B007
:102220001C46844653B192B189B94FF0500383F3F1
:102230001188BFF36F8FBFF34F8FFEE74FF050034E
:1022400083F31188BFF36F8FBFF34F8FFEE76AB13F
:1022500050230393039B502B13D04FF0500383F371
:102260001188BFF36F8FBFF34F8FFEE70029EFD0C8
:102270004FF0500383F31188BFF36F8FBFF34F8F7D
:10228000FEE7012384F8463000949DF8183060463C
:10229000FFF7A9FF204604B010BDF0B585B001924C
:1022A00088B10F461D460446B1B1022D20D1E36B23
:1022B000012B1DD04FF0500383F31188BFF36F8FB4
:1022C000BFF34F8FFEE74FF0500383F31188BFF346
:1022D0006F8FBFF34F8FFEE7036C002BE5D04FF0FD
:1022E000500383F31188BFF36F8FBFF34F8FFEE767
:1022F00000F07CFE064658B9019B002B48D04FF0F9
:10230000500383F31188BFF36F8FBFF34F8FFEE746
:1023100000263DE02A4639462046FFF79EFE636AC6
:102320007BB948B14FF0E0234FF08052C3F8042D41
:10233000BFF34F8FBFF36F8F01F08EFB012005B00D
:10234000F0BD04F1240000F0B7FD0028F4D04FF0F8
:10235000E0234FF08052C3F8042DBFF34F8FBFF33B
:102360006F8FE9E701F078FB0020E8E702A800F0B2
:10237000E9FD012619E0002384F8443021E0002320
:1023800084F8453023E02046FFF7B4FE00F074FCEB
:1023900001F040FBA26BE36B9A42BBD3022DB9D094
:1023A000019B002BDED0002EE0D001F055FB00F0A9
:1023B000C9FB01F02FFB94F8442052B2B2F1FF3F69
:1023C000D9D094F8452052B2B2F1FF3FD7D001F0F6
:1023D00043FB01A902A800F0C1FDD8B92046FFF7D0
:1023E00020FE0028CFD0019904F1100000F030FD4C
:1023F0002046FFF77FFE00F03FFC0028C8D14FF0D9
:10240000E0234FF08052C3F8042DBFF34F8FBFF38A
:102410006F8FBDE72046FFF76DFE00F02DFC00201A
:102420008DE72DE9F84390B10F4616461C46054648
:10243000B1B1022C20D1EB6B012B1DD04FF050031A
:1024400083F31188BFF36F8FBFF34F8FFEE74FF019
:10245000500383F31188BFF36F8FBFF34F8FFEE7F5
:10246000036C002BE5D04FF0500383F31188BFF3CA
:102470006F8FBFF34F8FFEE701F0B6FBEFF31189CB
:102480004FF0500383F31188BFF36F8FBFF34F8F6B
:10249000AA6BEB6B9A4206D3022C04D0002089F37E
:1024A0001188BDE8F88395F845804FFA88F82246F0
:1024B00039462846FFF7D1FDB8F1FF3F06D008F1B5
:1024C00001035BB285F845300120E8E76B6A0BB980
:1024D0000120E4E705F1240000F0EEFC18B126B17C
:1024E00001203060DBE70120D9E70120D7E7F0B514
:1024F00085B0019290B10F460446C1B100F076FD5F
:10250000064600BB019B002B5ED04FF0500383F3C7
:102510001188BFF36F8FBFF34F8FFEE74FF050036B
:1025200083F31188BFF36F8FBFF34F8FFEE7036C08
:10253000002BE3D04FF0500383F31188BFF36F8F6C
:10254000BFF34F8FFEE700263EE039462046FFF7F7
:10255000BFFD013DA563236923B901F07DFA012088
:1025600005B0F0BD04F1100000F0A6FC0028F4D086
:102570004FF0E0234FF08052C3F8042DBFF34F8F8C
:10258000BFF36F8FE9E701F067FA0020E8E702A8E0
:1025900000F0D8FC012621E0002384F8443029E033
:1025A000002384F845302BE02046FFF7A3FD00F020
:1025B00063FB09E02046FFF79DFD00F05DFB204630
:1025C000FFF73EFD00283FD101F024FAA56B002D56
:1025D000BBD1019B002BD6D0002ED8D001F03CFA05
:1025E00000F0B0FA01F016FA94F844305BB2B3F19F
:1025F000FF3FD1D094F845305BB2B3F1FF3FCFD06D
:1026000001F02AFA01A902A800F0A8FC0028D1D103
:102610002046FFF715FD0028C6D0019904F12400DB
:1026200000F016FC2046FFF765FD00F025FB0028B2
:10263000CAD14FF0E0234FF08052C3F8042DBFF30E
:102640004F8FBFF36F8FBFE7002089E70023072B71
:102650000CD8074A52F833200AB10133F7E7044A8D
:1026600042F8331002EBC30358607047704700BF55
:102670008001002070B504460D46164601F0CAF9E7
:1026800094F844305BB2B3F1FF3F0DD094F845307D
:102690005BB2B3F1FF3F0BD001F0DEF9A36B5BB18E
:1026A0002046FFF727FD70BD002384F84430EDE796
:1026B000002384F84530EFE73246294604F1240030
:1026C00000F0DEFBECE70000084B1B681B6823B939
:1026D000074B4FF0FF321A607047044B1B68DB68F2
:1026E000DB685A68024B1A60704700BFC4010020C3
:1026F000700600202DE9F04780460D4617469946A2
:10270000089EDDF824A00A9C9200A521206B01F010
:10271000C5FB236B07F18042013A03EB820727F0E8
:1027200007074FF0000CBCF10F0F0BD815F80C2069
:1027300004EB0C0383F8342015F80C3013B10CF1C2
:10274000010CF0E7002384F84330372E00D93726F8
:10275000E662E66400252565201DFFF728FC04F1EC
:102760001800FFF724FC2461C6F13806A6616462F4
:10277000656584F858504A464146384601F026F9C6
:102780002060BAF1000F01D0CAF80040BDE8F08720
:1027900038B5002407E004EB840293000E48184487
:1027A000FFF7FAFB0134372CF5D90C4D2846FFF71B
:1027B000F3FB0B4C2046FFF7EFFB0A48FFF7ECFB5F
:1027C0000948FFF7E9FB0948FFF7E6FB084B1D60E6
:1027D000084B1C6038BD00BFCC010020440600201F
:1027E0005806002078060020A4060020900600204D
:1027F000C4010020C801002010B5044601F00AF908
:10280000224A136801331360214B1B685BB1214BD3
:102810001B686BB91E4B1B68DA6AE36A9A4207D8D9
:102820001B4B1C6004E01A4B1C601368012B29D061
:10283000194A1368013313606364E06A174B1B681D
:10284000984201D9154B186000EB8000211D144BF4
:1028500003EB8000FFF7AEFB01F0FEF80D4B1B68A9
:102860007BB10B4B1B68DA6AE36A9A4209D24FF0DC
:10287000E0234FF08052C3F8042DBFF34F8FBFF316
:102880006F8F10BDFFF784FFD2E700BF2C0600203A
:10289000C00100208C0600203C06002040060020DD
:1028A000CC01002010B5044690F8593063B1012BDB
:1028B00011D0022B0ED04FF0500383F31188BFF3D9
:1028C0006F8FBFF34F8FFEE7006B01F017F82046C4
:1028D00001F014F810BD01F011F8FBE70F4B1B6875
:1028E000D3B110B501F096F80D4BDB68DC68201D04
:1028F000FFF784FB0B4A1368013B1360074A136818
:10290000013B136001F0A8F82046FFF7CBFF034B13
:102910001B68002BE6D110BD704700BF30060020B9
:10292000A40600202C06002008B5FFF7D7FF074BB0
:102930001B68012BF9D94FF0E0234FF08052C3F808
:10294000042DBFF34F8FBFF36F8FEEE7CC01002054
:1029500070B504460D46174B1E68174B18680430B7
:10296000FFF74CFBB4F1FF3F0DD03444124B1B6812
:102970005C60A64210D9114B18680F4B19680431DE
:10298000FFF723FB70BD002DEFD00B4B196804310E
:102990000B48FFF70FFBF5E70A4B1868064B196861
:1029A0000431FFF712FB084B1B68A342EAD9064B20
:1029B0001C60E7E7B8060020C0010020C801002025
:1029C00090060020C40100207006002030B587B0BA
:1029D0000B9C7CB10C9DB5B15C250495049D5C2DD0
:1029E0001AD04FF0500383F31188BFF36F8FBFF3FA
:1029F0004F8FFEE74FF0500383F31188BFF36F8FC3
:102A0000BFF34F8FFEE74FF0500383F31188BFF3FE
:102A10006F8FBFF34F8FFEE70C9D2C63022485F868
:102A2000594000240394029505AC01940A9C00943B
:102A3000FFF760FE0C98FFF7DFFE059807B030BD8A
:102A40002DE9F04385B00746884614461E4690009F
:102A500000F0DCFE00B381465C2000F0D7FE0546A6
:102A6000B0B1C0F83090E5B1002385F85930039338
:102A700002950D9B01930C9B0093334622464146E1
:102A80003846FFF737FE2846FFF7B6FE012005E07F
:102A9000484600F033FFE6E74FF0FF3005B0BDE8F1
:102AA000F0834FF0FF30F9E710B588B000240594AB
:102AB000069407AA06A905A800F02EFE059B02931E
:102AC000069B019300942346079A18491848FFF77C
:102AD0007DFF184B186040B100F0B4FB012806D010
:102AE000B0F1FF3F18D008B010BD0020F6E74FF05E
:102AF000500383F31188BFF36F8FBFF34F8F0E4BDB
:102B00004FF0FF321A600D4B01221A600C4B00226D
:102B10001A6001F009F8E6E74FF0500383F31188DB
:102B2000BFF36F8FBFF34F8FFEE700BF4848000829
:102B3000292900086C060020700600208C06002061
:102B4000B8060020024A136801331360704700BFC3
:102B500038060020014B1868704700BFB8060020F7
:102B6000F8B53A4B1B68002B64D1394B1D68013511
:102B70001D60C5B9374B1B681B6843B14FF050034C
:102B800083F31188BFF36F8FBFF34F8FFEE7314A96
:102B90001168314B186810601960304A13680133AE
:102BA0001360FFF791FD2E4B1B68AB4238D900270D
:102BB0002C4B1B68DB6A03EB83039A002A4B9B5860
:102BC000012B3CD901273AE00127224B1B681B68E7
:102BD00043B3204B1B68DB68DC6863689D4226D3E7
:102BE000261D3046FFF70AFAA36A1BB104F118004C
:102BF000FFF704FAE36A1D4A1268934201D91B4A9F
:102C0000136003EB83039A00314617481044FFF723
:102C1000D1F9E26A134B1B68DB6A9A42D4D2D4E73B
:102C20000027D2E70E4B4FF0FF321A60C0E70C4A84
:102C30001360BDE70E4A13680133136000270D4B84
:102C40001B6803B101273846F8BD00BF38060020D5
:102C5000B8060020C4010020C8010020740600202E
:102C600070060020C0010020CC010020400600209A
:102C700034060020BC06002038B5354B1B6843B92C
:102C80004FF0500383F31188BFF36F8FBFF34F8F63
:102C9000FEE700F0BFFE2E4B1A68013A1A601B686F
:102CA000002B4FD12B4B1B680BB900244BE00024A9
:102CB000294B1B681BB3284BDB68DC6804F1180048
:102CC000FFF79CF9251D2846FFF798F9E06A234B8A
:102CD0001B68984201D9214B186000EB80002946FF
:102CE0001F4B03EB8000FFF765F9E26A1D4B1B6881
:102CF000DB6A9A42DCD31C4B01221A60D8E70CB184
:102D0000FFF7E2FC194B1C6884B9174B1C68D4B15F
:102D10004FF0E0234FF08052C3F8042DBFF34F8FE4
:102D2000BFF36F8F01240EE0013C07D0FFF718FFBF
:102D30000028F9D00C4B01221A60F5E70B4B00225A
:102D40001A60E2E7002400F087FE204638BD00BF8D
:102D5000380600202C0600207806002040060020BF
:102D6000CC010020C0010020BC0600203406002059
:102D700010B5A8B10446104B1B6843B14FF0500387
:102D800083F31188BFF36F8FBFF34F8FFEE7FFF719
:102D9000D9FE00212046FFF7DBFDFFF76DFF48B9A4
:102DA0004FF0E0234FF08052C3F8042DBFF34F8F54
:102DB000BFF36F8F10BD00BF380600201F4B1B688C
:102DC0001BB11F4B01221A6070471D4B00221A6075
:102DD0001C4B1B6803EB83018A001B498A585AB9B4
:102DE0000BB1013BF6E74FF0500383F31188BFF3BB
:102DF0006F8FBFF34F8FFEE703EB830082000A441F
:102E000050684068506003EB830C4FEA8C02083234
:102E1000114488420BD003EB830291000A4A0A4412
:102E20005268D168094A1160064A136070474068C9
:102E300062469100044A0A445060ECE738060020DC
:102E4000BC06002040060020CC010020C00100206C
:102E500058B110B50C46094A11681831FFF7B5F89A
:102E600001212046FFF774FD10BD4FF0500383F39E
:102E70001188BFF36F8FBFF34F8FFEE7C0010020B3
:102E800038B570B10D4614460A4A11681831FFF77B
:102E900091F80CB14FF0FF3521462846FFF758FD59
:102EA00038BD4FF0500383F31188BFF36F8FBFF32A
:102EB0004F8FFEE7C001002038B5C368DC6824B33B
:102EC00004F118052846FFF799F8184B1B682BBB2F
:102ED000251D2846FFF792F8E06A154B1B689842BB
:102EE00001D9134B186000EB80002946114B03EB0E
:102EF0008000FFF75FF8E26A0F4B1B68DB6A9A42BB
:102F000011D901200D4B186038BD4FF0500383F3E9
:102F10001188BFF36F8FBFF34F8FFEE72946084834
:102F2000FFF748F8E7E70020EEE700BF380600208B
:102F300040060020CC010020C0010020BC0600207B
:102F400078060020034B1B680360034B1B6843603B
:102F5000704700BF74060020B8060020D8B170B5D5
:102F60000C46054601B300F055FD1B4B19686B6814
:102F7000C81A2268B2F1FF3F27D0184E3668D5F83C
:102F800000C0B44501D08B4224D9824215D8002319
:102F9000236001241AE04FF0500383F31188BFF33C
:102FA0006F8FBFF34F8FFEE74FF0500383F311880D
:102FB000BFF36F8FBFF34F8FFEE75B1A134423609D
:102FC0002846FFF7BFFF002400E0002400F044FD86
:102FD000204670BD0124F9E7B806002074060020E1
:102FE000014B01221A607047BC060020054B1B688C
:102FF00033B1054B1B680BB10020704702207047AE
:10300000012070478C0600203806002000283BD0A5
:1030100038B504461E4B1B68834208D04FF050035E
:1030200083F31188BFF36F8FBFF34F8FFEE7036DFC
:1030300043B94FF0500383F31188BFF36F8FBFF391
:103040004F8FFEE7013B0365C16AC26C91421DD000
:103050000BB1002038BD051D2846FEF7CFFFE06C00
:10306000E062C0F13803A3610A4B1B68984201D9A2
:10307000084B186000EB80002946074B03EB8000EB
:10308000FEF798FF0120E5E7002070470020E1E708
:10309000C001002040060020CC010020F8B5D8B1C6
:1030A0000D46044600F0A0FDEFF311864FF05003EB
:1030B00083F31188BFF36F8FBFF34F8F94F85830AD
:1030C000DBB2022284F85820626D01326265012B66
:1030D0000BD086F31188F8BD4FF0500383F31188AD
:1030E000BFF36F8FBFF34F8FFEE7A36A43B14FF07B
:1030F000500383F31188BFF36F8FBFF34F8FFEE749
:10310000144B1B68E3B9271D3846FEF777FFE06ACA
:10311000114B1B68984201D90F4B186000EB8000DF
:1031200039460E4B03EB8000FEF744FFE26A0C4B7E
:103130001B68DB6A9A42CCD945B101232B60C8E7F2
:1031400004F118010748FEF735FFEFE7064B0122AF
:103150001A60BEE73806002040060020CC0100209F
:10316000C001002078060020BC060020064B1A682B
:103170001368B3FA83F35B09036013B9D368186863
:1031800070470020704700BFC006002008B54160AE
:10319000006191420CD8D21A83699A4201D301206E
:1031A00008BD011D094B1868FEF70FFF0020F7E767
:1031B0009A4201D2994206D2011D054B1868FEF7CA
:1031C00004FF0020ECE70120EAE700BFC40600206E
:1031D000C006002030B583B000F01CFC114B1B680A
:1031E0001BB100F039FC03B030BD0F4D2846FEF78F
:1031F000D3FE0E4C2046FEF7CFFE0D4B1D600D4B4F
:103200001C60002300930C4B0C4A10210A20FEF78F
:10321000FBFF044B18600028E3D00949FFF716FABA
:10322000DFE700BFE4070020680700207C070020DC
:10323000C0060020C406002094070020C806002015
:103240005048000810B588B0FFF7C4FF124B1B6848
:10325000CBB100240594069407AA06A905A800F09E
:1032600067FA059B0293069B019302230093234672
:10327000079A0A490A48FFF7A9FB0A4B186010B1E0
:10328000012008B010BD4FF0500383F31188BFF345
:103290006F8FBFF34F8FFEE7E40700205848000808
:1032A00085350008E8070020B8B19C460346184859
:1032B000006858B300B585B00091019202930529CA
:1032C0001CDCFFF793FE022810D000231A46694643
:1032D0000F480068FEF7E1FF15E04FF0500383F35D
:1032E0001188BFF36F8FBFF34F8FFEE70023069A5D
:1032F000694607480068FEF7D0FF04E000236246F5
:103300006946FFF78EF805B05DF804FB00207047B2
:10331000E407002070B582B01A4B1B681A6852B3DC
:10332000DB681E68DC68251D2846FEF767FE636AB9
:1033300020469847E369012BEED1A36933449E42AE
:1033400007D26360246129460E4B1868FEF73DFEE4
:10335000E2E7002100910B4632462046FFF7A4FF2A
:103360000028D9D14FF0500383F31188BFF36F8F3A
:10337000BFF34F8FFEE7044A1068024908601360EC
:1033800002B070BDC0060020C406002038B5054656
:10339000FFF7E0FB0446074B1B68834205D8002378
:1033A0002B60044B1C60204638BDFFF7B3FF0123A0
:1033B0002B60F6E79007002070B582B006460D46F8
:1033C00014490968C968CC68201DFEF717FEE16939
:1033D000012904D0636A2046984702B070BDA169F4
:1033E00033462A4631442046FFF7D0FE0028F1D06C
:1033F000002100910B4632462046FFF755FF00287A
:10340000E8D14FF0500383F31188BFF36F8FBFF300
:103410004F8FFEE7C006002070B582B006460C460E
:10342000FFF790FB01A8FFF7B1FF019B2BBB0546FF
:103430000CB9B0421AD22CB1124B1B681C68B4FAFA
:1034400084F464092246711B0F4B1868FFF712F9C8
:10345000FFF712FC98B94FF0E0234FF08052C3F809
:10346000042DBFF34F8FBFF36F8F08E0FFF704FC0D
:1034700029463046FFF7A0FF01E0FFF7FDFB02B051
:1034800070BD00BFC4060020E407002010B588B05E
:1034900002E0049B002B0FDA002204A9384B1868C5
:1034A000FFF725F8002869D0049B002BF1DA079973
:1034B0000698059B9847ECE7069C636913B1201DAD
:1034C000FEF79CFD03A8FFF761FF049B092BE3D8DF
:1034D00001A252F823F000BF0135000801350008B1
:1034E0000135000899340008473500086D3500089B
:1034F00001350008013500089934000847350008F7
:10350000059BA169024619442046FFF73FFE0028AB
:10351000C2D0636A20469847E369012BBCD1A269F7
:10352000002100910B46059802442046FFF7BCFE9F
:103530000028B1D14FF0500383F31188BFF36F8F90
:10354000BFF34F8FFEE70599A16131B103460246F3
:1035500001442046FFF71AFE9EE74FF0500383F325
:103560001188BFF36F8FBFF34F8FFEE794F82C30B5
:10357000002B91D1204600F0C1F98DE708B010BDB5
:10358000E407002000B583B001A8FFF7EFFD019923
:10359000FFF742FFFFF77AFFF6E70000EFF305833E
:1035A00093B9EFF3108393B90C4B1868022804D039
:1035B00080B90A4B01221A607047EFF31183002B88
:1035C000F6D06FF0050070476FF0050070476FF0A0
:1035D000050070474FF0FF30704700BF480A0020D9
:1035E00008B5EFF30583B3B9EFF31083B3B90E4B0E
:1035F0001B68022B08D0012B13D10B4B02221A603F
:10360000FFF752FA002008BDEFF31182002AF2D032
:103610006FF00500F7E76FF00500F4E76FF00500C5
:10362000F1E74FF0FF30EEE7480A0020F0B587B031
:1036300000240494EFF30584002C43D1EFF31083AE
:10364000002B3FD1334B1B68022B16D0002839D0FA
:1036500000238DF8173062B3156895B1936903B9EB
:1036600018235C1E372C51D8546814F0010F4FD129
:1036700056694EB14FEA960C08E0EFF311830BBB8D
:10368000E4E70DF11705E9E74FF0800C94682CB1E1
:10369000D7685B2F02D9176907B1B6B914B14FF0DB
:1036A000FF340CE0D46894B914699CB14FF0FF3436
:1036B00005E0002418234FF0800C0DF11705012CB4
:1036C0000AD0ACB1049807B0F0BD0124F7E74FF081
:1036D000FF34F4E70024F2E714699268029201943F
:1036E00000930B4662462946FFF770F90490E9E71C
:1036F00004AA019200930B461FFA8CF22946FFF7A9
:103700009FF90128DED000230493DBE70020DAE7ED
:103710000020D8E7480A0020034B0360034B0B60EE
:1037200080231360704700BFEC090020EC070020E5
:10373000034B0360034B0B604FF4807313607047BF
:103740004C0E00204C0A0020124A12F0070F1ED027
:10375000D11D21F00701C1F5406313440A460E480C
:103760000260002141601344083B23F007030B482B
:10377000036059601960991A51601360084B196011
:10378000084B1960084B4FF000421A6070474FF425
:103790004063E4E7AC0E0020B81A0020A80E002019
:1037A000B41A0020B01A0020AC1A0020154B1A469B
:1037B0001B688342FBD3516802EB010C844509D09E
:1037C000416800EB010C634509D00360904218D0BA
:1037D000106070474068014451601046F0E710B433
:1037E000094C2468A3420AD05B68194441601368FD
:1037F0001B680360904200D0106010BC70470460EA
:10380000F8E77047B81A0020A80E002070B50546EA
:10381000FFF798F9344B1B68A3B1344B1B681D426A
:103820004AD135B1083515F0070F02D025F007054C
:103830000835002D42D02E4B1B68AB424DD32D4A8C
:10384000146804E0FFF780FFE7E722461C46636840
:10385000AB4202D22368002BF7D1234B1B68A34253
:103860003DD0166808362368136063685B1B102B15
:1038700010D9601910F0070F08D04FF0500383F3F0
:103880001188BFF36F8FBFF34F8FFEE74360656012
:10389000FFF78CFF626816490B689B1A0B6016498C
:1038A00009688B4201D214490B60104B1B6813430B
:1038B00063600023236002E0002600E00026FFF79B
:1038C000DBF916F0070F0CD04FF0500383F311888B
:1038D000BFF36F8FBFF34F8FFEE70026EFE70026A1
:1038E000EDE7304670BD00BFA80E0020AC1A0020E6
:1038F000B01A0020B81A0020B41A002080B338B5DE
:103900000446A0F1080550F8043C164A1268134218
:1039100008D14FF0500383F31188BFF36F8FBFF3CB
:103920004F8FFEE750F8081C41B14FF0500383F36E
:103930001188BFF36F8FBFF34F8FFEE723EA0203B7
:1039400040F8043CFFF7FEF854F8041C064A1368DC
:103950000B4413602846FFF729FFFFF78DF938BDA8
:10396000704700BFAC1A0020B01A002082B00023BC
:1039700001930D4B1B68B3F1FF3F08D04FF050038C
:1039800083F31188BFF36F8FBFF34F8FFEE74FF0C4
:10399000500383F31188BFF36F8FBFF34F8F019BE9
:1039A000002BFCD002B070470C00002006480068D5
:1039B000006880F3088862B661B6BFF34F8FBFF32B
:1039C0006F8F00DF00BF000008ED00E04FF0807354
:1039D00040F8043C21F0010140F8081C034B40F87A
:1039E0000C3C40F8202C4038704700BF6D3900086F
:1039F000074B19680868B0E8F00F80F30988BFF337
:103A00006F8F4FF0000080F311884EF00D0E70475D
:103A1000C00100204FF0500383F31188BFF36F8F74
:103A2000BFF34F8F0B4A136801331360012B00D093
:103A300070474FF0E023D3F8043D13F0FF0FF7D0A9
:103A40004FF0500383F31188BFF36F8FBFF34F8F95
:103A5000FEE700BF0C000020094B1B6843B94FF084
:103A6000500383F31188BFF36F8FBFF34F8FFEE7CF
:103A7000013B034A13600BB983F31188704700BF01
:103A80000C0000200000000000000000000000000A
:103A9000EFF30980BFF36F8F0D4B1A6820E9F00F29
:103AA00010602DE908404FF0500080F31188FFF7B7
:103AB00085F94FF0000080F31188BDE808401968CF
:103AC0000868B0E8F00F80F30988BFF36F8F704784
:103AD000C001002008B54FF0500383F31188BFF3F5
:103AE0006F8FBFF34F8FFFF73BF828B14FF0E02304
:103AF0004FF08052C3F8042D002383F3118808BDD2
:103B00004FF0E022002313619361054B1B680549C8
:103B1000A1FB03139B09013B53610723136170470A
:103B200008000020D34D621010B582B02A4B1A78DD
:103B3000D2B20192FF221A701B78DBB28DF80330EB
:103B40009DF8033003F05003244A1370244B0722DE
:103B50001A6009E0224A1368013B13609DF80330A4
:103B60005B00DBB28DF803309DF8033013F0800F5B
:103B7000F0D11B4B1B68032B08D04FF0500383F38D
:103B80001188BFF36F8FBFF34F8FFEE71B02144AFC
:103B9000136003F4E0631360019BDBB20E4A137001
:103BA0004FF0E023D3F8202D42F47002C3F8202D0B
:103BB000D3F8202D42F07042C3F8202DFFF7A0FF6C
:103BC0000024084B1C60FFF7F1FEFFF7F7F8FFF742
:103BD000CDFE204602B010BD00E400E0C01A002077
:103BE000C41A00200C000020EFF305830F2B0FD91F
:103BF000114A9B5CDBB2114A12789A4208D94FF005
:103C0000500383F31188BFF36F8FBFF34F8FFEE72D
:103C10004FF0E023D3F80C3D03F4E063084A126848
:103C2000934208D94FF0500383F31188BFF36F8F8D
:103C3000BFF34F8FFEE77047F0E300E0C01A0020AB
:103C4000C41A002008B501460F2000F021F800B189
:103C5000012008BD10B582B004460DF107012020F7
:103C600000F016F808B902B010BD9DF8071001F079
:103C70000F018DF8071041EA0411C9B28DF8071041
:103C8000202000F02DF80028EDD00120EBE7000007
:103C900030B585B00C4660F07F008DF80C00FF2336
:103CA0008DF80D300C4D002210212846FDF7DCF870
:103CB00064230093022302AA03A90848FDF7C3FF67
:103CC000012210212846FDF7CFF89DF80930237016
:103CD000012005B030BD00BF00080140E000002019
:103CE00010B582B000F07F008DF804008DF805104B
:103CF000094C002210212046FDF7B6F86423022269
:103D000001A90648FDF7C3FE012210212046FDF758
:103D1000ABF8012002B010BD00080140E000002017
:103D200010B58CB00DF1040C0D4C0FCCACE80F00AD
:103D30000FCCACE80F0094E80700ACE803008CF867
:103D4000002001A8FCF704FA4FF4FA7382B201A92B
:103D50000448FDF70AFB4FF4FA70FFF709F8F0E7A3
:103D60006048000894000020012800D0704700B58A
:103D700083B001A9034B1868FFF790F903B05DF811
:103D800004FB00BFDC00002010B58CB00DF1070073
:103D9000FFF758FFB8B19DF80720114902A800F0BD
:103DA00085F80320FFF756FF02A8FCF7D1F94FF47E
:103DB0007A7382B202A90B48FDF7D7FA4FF4FA7072
:103DC000FEF7D6FFFEE70DF1080C074C0FCCACE870
:103DD0000F000FCCACE80F002368ACF80030E0E730
:103DE0008C48000894000020AC4800080C480D499D
:103DF0000D4A002302E0D458C4500433C4188C4246
:103E0000F9D30A4A0A4C002301E013600432A242AB
:103E1000FBD3FDF703F900F00FF8FCF7E1F9704769
:103E200000000020740000200C49000874000020ED
:103E3000DC1A0020FEE7000070B500260C4D0D4C8A
:103E4000641BA410A64209D100F0AAFC00260A4D6A
:103E50000A4C641BA410A64205D170BD55F8043B62
:103E600098470136EEE755F8043B98470136F2E7EC
:103E700004490008044900080449000808490008EA
:103E80000A44914200F1FF3300D1704710B511F898
:103E9000014B914203F8014FF9D110BD0346024492
:103EA000934200D1704703F8011BF9E70EB46FF09D
:103EB000004100B59CB01DAB0290069007910491A3
:103EC0000848094953F8042B0591006802A9019399
:103ED00000F068F80022029B1A701CB05DF804EB39
:103EE00003B07047100000200802FFFF2DE9F047E3
:103EF0008E6882469E420C4690461F4638D88A8974
:103F000012F4906F32D0256809690133A5EB0109DD
:103F100065694B4405EB450505EBD5756D109D4274
:103F200038BF1D46530531D5294600F061FB0646D2
:103F300050B90C234FF0FF30CAF80030A38943F08A
:103F40004003A381BDE8F0874A462169FFF798FF47
:103F5000A38923F4906343F08003A38126614E4438
:103F600026603E466561A5EB0905A560BE4200D905
:103F70003E4632464146206800F0B8FAA368002069
:103F80009B1BA360236833442360DBE72A4600F0D1
:103F9000A3FB06460028E1D15046216900F0C0FA93
:103FA000C7E700002DE9F04F98468B8907461B06AE
:103FB0000D4614469DB00ED50B6963B9402100F043
:103FC00017FB2860286120B90C233B604FF0FF30BD
:103FD000D1E040236B610023099320238DF8293021
:103FE00030234FF00109CDF80C80DFF8A4818DF863
:103FF0002A3023469A4613F8012B0AB1252AF9D113
:10400000BAEB040B0BD05B46224629463846FFF735
:104010006DFF013000F0AA80099A5A4409929AF87B
:104020000030002B00F0A28000234FF0FF32CDE9DA
:1040300005230AF1010A049307938DF853301A936C
:104040005446052214F8011B514800F041FA049A25
:10405000D8B9D00644BF20238DF85330110744BF90
:104060002B238DF853309AF800302A2B15D0544664
:1040700000204FF00A0C079A214611F8013B303B13
:10408000092B4ED9B0B1079214E0A0EB080309FA4E
:1040900003F31343A2460493D2E7039B191D1B6845
:1040A0000391002BBBBF5B4242F0020207930793D0
:1040B000B8BF049223782E2B0CD163782A2B35D1EC
:1040C000039B02341A1D1B680392002BB8BF4FF0EC
:1040D000FF330593DFF8BCA003225046217800F09F
:1040E000F7F940B14023A0EB0A0003FA00F0049B6B
:1040F00001340343049314F8011B062226488DF86B
:10410000281000F0E5F9002838D0244B1BBB039B96
:10411000073323F0070308330393099B33440993C0
:1041200067E70C4601200CFB0232A5E700234FF0A5
:104130000A0C194601340593204610F8012B303A39
:10414000092A03D9002BC5D00591C3E704460123F2
:104150000CFB0121F0E703AB00932A463846104BD5
:1041600004A9AFF30080421C0646D6D1AB895B069A
:104170003FF52CAF09981DB0BDE8F08F03AB00935D
:104180002A463846064B04A900F07CF8EBE700BF4E
:10419000CE480008D4480008D848000800000000B5
:1041A000ED3E00082DE9F047164699468A680B69EE
:1041B00007469342B8BF1346336091F843200C463C
:1041C000DDF820800AB1013333602368990642BFCD
:1041D000336802333360256815F0060506D104F113
:1041E000190AE36832689B1AAB4228DC94F8432032
:1041F000131E226818BF012392062DD44946384663
:1042000004F14302C047013020D02368E56803F081
:104210000603042B18BF002532684FF00006A36880
:1042200008BFAD1A226908BF25EAE5759342C4BFED
:104230009B1AED181A34B5421AD1002008E0012368
:10424000524649463846C047013003D14FF0FF304F
:10425000BDE8F0870135C4E73020E11881F843005C
:104260005A1C94F845102244023382F84310C5E7E3
:104270000123224649463846C0470130E6D0013680
:10428000D9E700002DE9FF470F7E9146782F804641
:104290000C469A460C9D01F1430207D8622F0AD8BA
:1042A000002F00F0D980582F00F0A48004F14205BF
:1042B00084F842703AE0A7F16303152BF6D801A108
:1042C00051F823F01D43000831430008AD420008B7
:1042D000AD420008AD420008AD420008314300087D
:1042E000AD420008AD420008AD420008AD420008F2
:1042F0003F4400086143000821440008AD42000823
:10430000AD42000861440008AD4200086143000866
:10431000AD420008AD420008294400082B681A1D70
:104320001B682A6004F1420584F842300123A4E0AE
:1043300020682968060601F104030AD50E682B607F
:10434000002E03DA2D23764284F843300A235E4898
:1043500019E00E6810F0400F2B6018BF36B2EFE77F
:104360002B682068191D2960010601D51E6802E02E
:104370004606FBD51E886F2F0CBF08230A23524820
:10438000002184F843106568002DA8BF2168A5604E
:10439000A4BF21F0040121600EB9002D4DD01546B7
:1043A000B6FBF3F103FB1167C75D05F8017D3746E6
:1043B000BB420E46F4D9082B0BD12368DE0708D583
:1043C000236961689942DEBF302305F8013C05F19D
:1043D000FF35521B22614B4621464046CDF800A0D6
:1043E00003AAFFF7DFFE01304CD14FF0FF3004B0DD
:1043F000BDE8F087344881F845702968236851F892
:10440000046B29601D0614D5DF0744BF43F0200369
:1044100023601EB9236823F0200323601023AFE735
:10442000236843F0200323607823284884F845302C
:10443000E3E7590648BFB6B2E6E71546BBE72B6887
:104440002668181D6169286035061B6801D519604A
:1044500002E07006FBD51980002315462361BAE7F8
:104460002B6800211A1D2A601D686268284600F02A
:104470002FF808B1401B606063682361002384F853
:104480004330A8E72A46494640462369D0470130D1
:10449000ABD023689B0713D4E068039B9842B8BF56
:1044A0001846A4E70123324649464046D04701302A
:1044B0009BD00135E36803995B1AAB42F2DCEBE772
:1044C000002504F11906F5E7DF480008F048000868
:1044D000034610B5C9B202449342184601D10020E8
:1044E00003E0047801338C42F6D110BD884210B548
:1044F00001EB020402D98442234607D8431EA1429D
:1045000008D011F8012B03F8012FF8E70146024407
:104510008A4200D110BD13F8014D02F8014DF7E7B2
:1045200038B50546002940D051F8043C0C1F002B3B
:10453000B8BFE41800F010F91C4A136833B963607F
:1045400014602846BDE8384000F00CB9A34208D9F1
:10455000206821188B4201BF19685B680918216027
:10456000EDE71A465B680BB1A342FAD911685018FF
:10457000A0420BD120680144501883421160E0D161
:1045800018685B68014411605360DAE702D90C23B4
:104590002B60D6E7206821188B4201BF19685B6841
:1045A0000918216063605460CBE738BDC81A002049
:1045B00070B50E4E0C463168054611B900F0BCF8D6
:1045C00030602146284600F0B7F8431C0AD0C41CCE
:1045D00024F00304A04207D0211A284600F0ACF8CA
:1045E000013001D14FF0FF34204670BDCC1A0020BD
:1045F0002DE9F041CD1C25F0030508350C2D38BF01
:104600000C25002D074601DBA94205D90C23002605
:104610003B603046BDE8F0812E4E00F09DF83368D7
:104620001C4634BB29463846FFF7C2FF431C0446EC
:104630004DD134682646002E40D123683146384695
:1046400004EB030800F078F880453AD1216803357F
:104650006D1A25F0030508350C2D38BF0C2538469A
:104660002946FFF7A5FF01302BD023682B44236098
:104670000EE02268521B1ED40B2A16D96119A342E0
:10468000256018BF5960636808BF316062514B6094
:10469000384604F10B0600F065F826F00706231DE6
:1046A000F21AB6D09B1BA350B3E76268A3420CBFBB
:1046B00032605A60ECE723466468B2E734467668B5
:1046C000B9E70C2338463B6000F04CF8A1E72560C1
:1046D000DEE700BFC81A00202DE9F04180461446ED
:1046E0000E4621B91146BDE8F041FFF781BF2AB956
:1046F000FFF716FF25462846BDE8F08100F038F8A0
:104700008442074602D8B4EB500F12D821464046E7
:10471000FFF76EFF05460028EDD0BC422246314629
:1047200028BF3A46FFF7ACFB31464046FFF7F8FE9C
:10473000E1E73546DFE7000038B50023054D0446C4
:1047400008462B6000F01EF8431C02D12B6803B111
:10475000236038BDD01A0020014800F011B800BF16
:10476000D41A0020014800F00CB800BFD41A002071
:1047700051F8043C181F002BBCBF0B58C0187047E1
:1047800070477047044A05491368002B08BF0B4661
:104790001844106018467047D81A0020E01A00200C
:1047A000F8B500BFF8BC08BC9E467047F8B500BF1E
:0847B000F8BC08BC9E467047EE
:1047B80002030405060708090A0B0C0D0E0F10105A
:1047C80000000000000000000000000001020304D7
:1047D80006070809000000000102030473656E73F0
:1047E8006F725461736B0000636F6E74726F6C6CE0
:1047F80065725461736B0000F04700080000000008
:10480800000000000000000000000000000200009E
:10481800180000000000000000000000E447000845
:104828000000000000000000000000000000000080
:10483800000200001C000000000000000000000052
:1048480049444C4500000000546D725100000000BE
:10485800546D7220537663004369616F2062656C02
:104868002066726F6D204672656552544F532063FF
:104878006F6E74726F6C6C6572207461736B210A51
:104888000000000053656E736F72207461736B2CA7
:104898002077686F69616D3A20307825303258206A
:1048A8000A00000053656E736F72207461736B2C7D
:1048B8002077686F69616D20726564696E6720652D
:1048C80072726F720A00232D302B2000686C4C0026
:1048D80065666745464700303132333435363738F8
:1048E8003941424344454600303132333435363756
:0C48F800383961626364656600000000EE
:044904003501000871
:044908001101000891
:10490C0001000000100000000024F400AAAAAAAACA
:10491C001400002000000000000000000000000057
:10492C00000000000000000000000000000000007B
:10493C00000000000000000000000000000000006B
:10494C00000000000000000000000000000000005B
:10495C00000000000000000000000000000000004B
:10496C00000000000000000000000000000000003B
:04497C000000000037
:0400000508003DEDC5
:00000001FF
